:020000040800F2
:100000001019002065010008971D0008E31C000876
:10001000951D0008A50400088122000800000000CA
:100020000000000000000000000000009B1D000810
:10003000A704000800000000991D00082D1E0008FC
:100040007F0100087F0100087F0100087F01000890
:100050007F0100087F0100087F0100087F01000880
:100060007F0100087F0100087F0100087F01000870
:100070007F0100087F0100087F0100087F01000860
:100080007F0100087F0100087F0100087F01000850
:100090007F0100087F0100087F0100087F01000840
:1000A0007F0100087F0100087F0100087F01000830
:1000B000051F00087F0100087F0100087F0100087C
:1000C0007F0100087F0100087F0100087F01000810
:1000D0007F010008F5210008012200087F010008C7
:1000E0007F0100087F0100087F0100080000000078
:1000F0000000000000000000000000000000000000
:1001000000000000000000007F0100087F010008DF
:10011000991F0008A51F0008111F00087F01000893
:100120007F0100087F0100087F0100087F010008AF
:100130007F0100087F0100087F0100087F0100089F
:100140007F0100087F0100087F0100087F0100088F
:10015000DFF80CD000F034F900480047D52700083C
:10016000101900200648804706480047FEE7FEE7D2
:10017000FEE7FEE7FEE7FEE7FEE7FEE7FEE7FEE757
:10018000B11E0008510100082DE9F05F054600206E
:1001900092469B4688460646814640241BE02846F8
:1001A00041464746224600F020F853465A46C01AB8
:1001B000914110D311461846224600F0A3F82D1A9B
:1001C00067EB01084F4622460120002100F09AF813
:1001D00017EB00094E41201EA4F10104DFDC484664
:1001E00031462A464346BDE8F09F202A04DB203AE8
:1001F00021FA02F00021704721FA02F3D040C2F147
:10020000200291400843194670470000004870479B
:10021000F4340008D2B201E000F8012B491EFBD2F1
:1002200070470022F6E710B513460A460446194601
:10023000FFF7F0FF204610BD30B505462A460B46B5
:1002400012F8010B13F8014B08B1A042F8D01CB111
:10025000002802D06D1CF1E7284630BD10B50446D9
:1002600004E00B7800F8013B03B1491C521EF8D2A0
:10027000204610BD421C10F8011B0029FBD1801A3A
:100280007047034611F8012B00F8012B002AF9D121
:10029000184670472DE9F04791460F4680460446C0
:1002A000002614F8015B2DB1FFF7B0FF0068405D38
:1002B000C007F6D12B2D02D02D2D18D0641E4A4632
:1002C0003946204600F02DF827B13968A14201D106
:1002D000C7F8008071054FF002040BD5404200289A
:1002E00003DD02F003F80460A007BDE8F08746F4E0
:1002F0008066E4E70028F8DA01F0F8FF04606FF0A8
:100300000040F2E7202A04DB203A00FA02F1002044
:1003100070479140C2F1200320FA03F31943904043
:1003200070472DE9F05F82460078002715468B461E
:100330000AF10104B946302801D09DB113E014F848
:10034000010B0127782803D0582801D045B10AE0D5
:100350000DB1102D07D10027102514F8010B02E074
:10036000082500E00A250026B0460EE005FB08003F
:1003700005FB06F1012701EB10461FFA80F8B6F5E0
:10038000803F00D3B94614F8010B294600F02AF843
:100390000028EBDABBF1000F05D00FB1641E00E0BE
:1003A0005446CBF80040B9F1000F06D001F09EFF93
:1003B00002210160C81EBDE8F09F48EA0640FAE746
:1003C000064C074D06E0E06840F0010394E80700A2
:1003D00098471034AC42F6D3FFF7BEFEBC37000896
:1003E000DC3700083A2800D2303820F02002412AB9
:1003F00001D3A2F13700884201D34FF0FF3070479C
:1004000070B58C1810F8015B15F0070301D110F8D6
:10041000013B2A1106D110F8012B03E010F8016B03
:1004200001F8016B5B1EF9D12B0705D40023521E86
:100430000DD401F8013BFAE710F8013BCB1A921CEE
:1004400003E013F8015B01F8015B521EF9D5A142EC
:10045000D8D3002070BD000070B5044600688168E4
:10046000C943C9071CD1816821F00101816000F0F6
:10047000F9FA05460FE000BF00F0F4FA401B02282D
:1004800009D9A06A40F01000A062E06A40F00100C3
:10049000E062012070BD20688068C043C007EBD0D7
:1004A000002070BDFEE77047F8B50024009490F876
:1004B00024202546012A12D0012280F824204A68EF
:1004C0001F23072A0DD20668776B521E02EB8202A9
:1004D00093409F430B6893401F43776319E00220CA
:1004E000F8BD06680D2A0AD2376BD21F02EB8202D2
:1004F00093409F430B6893401F43376309E0F76ABB
:100500000D3A02EB820293409F430B6893401F43D6
:10051000F7620A68072306680A2A0AD3F7680A3AC4
:1005200002EB420293409F438B6893401F43F76066
:1005300008E0376902EB420293409F438B68934087
:100540001F4337610A68102A01D0112A20D1124BAB
:1005500002689A4217D193681B0219D4936843F436
:10056000000393600968102912D10C490C4A0968EC
:10057000B1FBF2F101EB8101490000E0491E00915D
:100580000029FBD104E0816A41F02001816201244D
:1005900080F824502046F8BD00240140540C00206F
:1005A00040420F002DE9F0414FF0000704003D46A6
:1005B0007ED0A06A002628B9E66284F8246020462E
:1005C00000F07EF82046FFF747FFA16A01F0100116
:1005D000014304D0A06A40F01000A06268E0A16A64
:1005E00021F4885141F00201A1626268E169237B34
:1005F0000A4347EA43010A43A1684FF48077B942AE
:1006000008D0012906D0002194F814C0BCF1010FD4
:1006100002D00AE03946F7E7F3B1A36A43F02003BA
:10062000A362E36A43F00103E3622368D3F804C0E2
:100630002CF4694C4CEA010CC3F804C02368996897
:10064000DFF870C001EA0C0111439960A168B9425A
:100650000BD0012909D00CE0DFF85CC0A3690CEBDA
:1006600043330B4343F40061DFE7218A0D05A5F511
:1006700080152168CB6A23F470032B43CB62216879
:1006800089680E4B1940914208D1E662A16A21F0B7
:10069000020141F00101A162BDE8F081A06A20F0F1
:1006A000020040F01000A062E06A40F00100E06249
:1006B0000120F1E7FDF7E1FF00E0FFFFFE0E1FFF65
:1006C00000B585B00021009101910291039100686D
:1006D0000E49884218D10E48816941F40071816148
:1006E000816901F400710491816941F00401816123
:1006F0008069694600F004000490402000900320C7
:100700000190044800F0B2F805B000BD002401409B
:1007100000100240000801402DE9F05F90F8211020
:100720000024022903D004218163012485E00168AB
:100730000A6822F00E020A6001680A6822F00102CB
:100740000A603F4E3E4FB215DFF8F4C0DFF8F0907C
:10075000DFF8ECA0DFF8E8B0DFF8E4E00168783F0C
:1007600013011502ACF1640CA9F15009AAF13C0A7D
:10077000ABF1280BAEF1140E4FF48018B14227D91B
:10078000B9420ED0614512D049451DD0514518D00F
:10079000594518D0714501D1424615E0294EB14264
:1007A00001D1012210E0274E1436B14201D11022AE
:1007B0000AE0244E2836B14206D0224A3C32914209
:1007C00001D11A4600E02A461E49091F0A602BE0A3
:1007D000B94213D0614517D0494522D051451DD0AB
:1007E00059451DD0714501D142461AE0B14202D1AE
:1007F0004FF0807215E0134EB14201D1012210E09A
:10080000104E1436B14201D110220AE00D4E2836A6
:10081000B14206D00B4A3C32914201D11A4600E067
:100820002A46074980394A60012180F821100021B9
:1008300080F82010416B01B188472046BDE8F09F49
:10084000800002400804024070B5044600F00AF936
:100850000546601C02D004480078044400F002F908
:10086000401BA042FAD370BD480C00202DE9F84F80
:10087000DFF8B891002409F1040A0AF1040B2346B9
:100880000F270BF1040EC9E00125A5402A40AA421A
:100890007DD1674ED1F804C0ACEB0608B44532D028
:1008A00014DCBCF1030F3AD009DCBCF1000F2AD0F4
:1008B000BCF1010F1CD0BCF1020F31D11DE0BCF125
:1008C000110F17D0BCF1120F2AD119E0B8F5881F0B
:1008D00019D006DCB8F5803F15D0B8F5801F1FD1C0
:1008E00011E0B8F5001F0ED0B8F5041F18D10AE0CA
:1008F000CB6815E0CB681B1D12E0CB6808330FE016
:10090000CB680C330CE08B682BB1012B4FF0080344
:1009100003D0456104E0042302E0056100E0002308
:10092000FF2A01D8064601E000F104064FEA8405DB
:1009300001D9A5F12005D6F8008007FA05FC28EAC0
:100940000C0803FA05F548EA0508C6F800804D686A
:10095000ED0062D5374DAE6946F00106AE61AD6976
:1009600024F0030605F001050095334D06EB050C58
:10097000DCF80850A607360F07FA06F825EA08053E
:10098000DFF8B880404503D14FF0000817E044E09D
:10099000DFF8AC80404502D14FF001080FE0DFF8EE
:1009A000A480404502D14FF0020808E0DFF89880AB
:1009B000404502D14FF0030801E04FF0040808FA67
:1009C00006F848EA0508CCF808804D68D9F80060B8
:1009D000ED034D4601D5164300E096432E604D6869
:1009E000DAF80060AD03554601D5164300E09643A2
:1009F0002E604D68DBF80060ED025D4601D51643C0
:100A000000E096432E604D68DEF80060AD0275464A
:100A100001D5164300E096432E60641C0D682A46FB
:100A2000E5407FF431AFBDE8F88F000000040140DD
:100A300000001110001002400000014000080140B9
:100A4000000C01400010014000140140C2680A423D
:100A500001D041617047016170470AB1016170477F
:100A60000904FBE70148806870470000480C00203B
:100A700070B5040011D021684CF6CC4008602168A4
:100A800045F255500860D4E9000141602168A06832
:100A90008860FFF7E7FF054609E0012070BD00BF51
:100AA000FFF7E0FF401B302801D9032070BD20680C
:100AB000C0680028F4D121684AF6AA200860002006
:100AC00070BD00684AF6AA2101600020704700004E
:100AD000024881680278114481607047480C002008
:100AE000074810B5016841F010010160032000F0D3
:100AF00075F8002000F006F800F024F8002010BD82
:100B00000020024070B50D4D04464FF47A712878EC
:100B1000B1FBF0F00A490968B1FBF0F000F07CFC91
:100B200048B9102C07D200222146501E00F036F89A
:100B300000206C6070BD012070BD0000480C0020DA
:100B4000540C00200C4808B5816941F00101816115
:100B5000816901F001010091C16941F08051C161D9
:100B6000C06900F0805000900448416821F0E061C5
:100B700041F08061416008BD00100240000001406A
:100B8000002809DB00F01F0201219140400980008C
:100B900000F1E020C0F8001170470000F0B40E4BE7
:100BA0001B680C46C3F30223C3F10705042D00D9CB
:100BB0000425191D072901D2002300E0DB1E0126B0
:100BC00006FA05F1491E214099409E40761E1640C6
:100BD0003143F0BC01F07ABB0CED00E0064900F0B7
:100BE000070208684FF6FF03184040EA0220034A54
:100BF00010430860704700000CED00E00000FA05AB
:100C00002DE9F843044600785B4DC0074FF0010919
:100C100051D0E8690026C00008D4E86940F080504F
:100C2000E861E869012600F08050009053480168AF
:100C3000C90512D40168804641F480710160FFF754
:100C400011FF074605E000BFFFF70CFFC01B64283B
:100C500077D8D8F80000C005F6D5286A10F440709F
:100C60001ED0A18801F44071814219D0286A4449FC
:100C700020F44070C1F8009000220A602862C0078A
:100C80000ED0FFF7EFFE074641F2883805E000BFBF
:100C9000FFF7E8FEC11B414553D8286A8007F7D506
:100CA000286A616820F44070084328621EB1E86930
:100CB00020F08050E8612078800705D56868A16839
:100CC00020F44040084368602078400705D5E86A72
:100CD000E16820F400300843E8622078000705D579
:100CE000E86A216920F480200843E862E86A80030A
:100CF00002D4E86A400333D52868C00028D42868A5
:100D0000400105D5E86AA16900F0F000884225D1CC
:100D1000E86AA16920F0F0000843E862E86A6169C6
:100D200020F470400843E8621649C1F87090FFF75C
:100D300099FE064608E004E0FFF794FE801B642855
:100D400002D90320BDE8F88328688000F4D507E0C5
:100D5000E86A616900F47040884201D00120F1E73F
:100D60002078C00605D56868E16920F48000084352
:100D700068600020E6E700000010024000700040BC
:100D800040044242000042422DE9F0470F46050070
:100D900061D0434E306800F00700B84209D2306895
:100DA00020F0070038433060306800F00700B84298
:100DB00051D128683B4C810712D5400703D56068A4
:100DC00040F4E06060602878000703D5606840F474
:100DD000605060606068A96820F0F00008436060BF
:100DE0002878C00728D06868012810D02168022818
:100DF00010D0890700292EDA616821F00301014330
:100E00006160FFF72FFE804641F288390DE02168CE
:100E10008903EFE78901EDE7FFF724FEA0EB080166
:100E2000494502D90320BDE8F0876068696800F091
:100E30000C00B0EB810FEFD1306800F00700B84232
:100E40000BD9306820F0070038433060306800F07C
:100E50000700B84201D00120E5E72878400705D512
:100E60006068E96820F4E060084360602878000763
:100E700006D56068296920F4605040EAC1006060CE
:100E800000F038F86168084AC1F30311515CC840AA
:100E90000649086006480068FFF734FE0020C2E7F4
:100EA000002002400010024058340008540C00207A
:100EB0004C0C00200448054900684968044AC1F305
:100EC0000221515CC8407047540C002000100240C1
:100ED000683400080448054900684968044AC1F3B9
:100EE000C221515CC8407047540C002000100240E1
:100EF00068340008F0B523A289B00FCA04AC84E8B6
:100F00000F0024A10FC98DE80F0026494A68264822
:100F100002F00C03042B2FD0082B2DD104A8C2F310
:100F20008343C45CD00329D5C86A00F00F001DF8C4
:100F30000020C86AC00316D5C86AC96AC0F3031086
:100F4000C1F30321401C891CA0FB0223A1FB041652
:100F5000154F0025A1FB070C06FB07C601FB056129
:100F6000FFF712F903E010486043B0FBF2F09DF880
:100F70001D10A14200D1400809B0F0BD0B486043EC
:100F8000FAE7000000000405060708090000000059
:100F9000000D00000102030405060708090A0B0CF6
:100FA0000D0E0F100010024000127A0000093D00E3
:100FB0002DE9F84F040070D02078F14DC00749D0DA
:100FC0006868C0F38100012807D06868C0F3810019
:100FD000022809D16868C00306D52868800339D57E
:100FE000A0680028E7D035E0A068B0F5803F0BD0BE
:100FF00010B1B0F5A02F11D0286820F480302860FF
:10100000286820F4802002E0286840F480302860BE
:10101000A06890B1FFF726FD06460AE0286840F474
:1010200080202860F0E700BFFFF71CFD801B6428CC
:1010300076D828688003F7D50CE0FFF713FD064645
:1010400005E000BFFFF70EFD801B6428F0D828687C
:101050008003F7D42078CB4E80074FF001094FF082
:1010600000073AD5686810F00C0F07D06868C0F325
:101070008100022809D16868C00306D42868800767
:1010800015D56069012808D111E06069B8B1C6F8CA
:101090000090FFF7E7FC804606E042E1FFF7E2FC44
:1010A000A0EB08000228C3D828688007F6D5286876
:1010B000A16920F0F80040EAC10028600DE0376027
:1010C000FFF7D0FC804605E0FFF7CCFCA0EB080062
:1010D0000228ADD828688007F6D4207800072ED5DE
:1010E000A948E169E9B1C0F80090FFF7BBFC804670
:1010F00006E000BFFFF7B6FCA0EB0800022897D877
:10110000686A8007F6D5A1484FF4FA510068B0FB31
:10111000F1F0009000BF0098411E0091FAD20EE05D
:10112000B0E00760FFF79EFC804605E0FFF79AFC01
:10113000A0EB0800022889D8686A8007F6D42078D6
:10114000400763D5E8694FF00008C00009D4E8699A
:1011500040F08050E861E8694FF0010800F08050ED
:1011600000908B480168C90512D40168834641F498
:1011700080710160FFF776FC824605E0FFF772FCA4
:10118000A0EB0A0064287DD8DBF80000C005F5D587
:10119000206901280AD008B1052813D0286A20F058
:1011A00001002862286A20F0040002E0286A40F06A
:1011B00001002862206941F2883B98B1FFF752FC98
:1011C00082460BE0286A40F004002862EEE700BF88
:1011D000FFF748FCA0EB0A01594553D8286A80075D
:1011E000F6D50CE0FFF73EFC824605E0FFF73AFC3F
:1011F000A0EB0A01594545D8286A8007F6D4B8F112
:10120000000F03D0E86920F08050E861E06AD0B3B5
:101210006968C90307D56968C1F38101022902D150
:10122000E96AC9037DD4022808D0E86A20F4803036
:10123000E862B766FFF716FC80463BE02868C0000E
:1012400005D5E86A616B00F0F000884269D1B766A5
:10125000FFF708FC804605E0FFF704FCA0EB080060
:10126000642874D828680001F6D4E86A616B20F01D
:10127000F0000843E862E86A216B20F470600843DC
:10128000E86201E063E018E0C6F86890FFF7EAFB67
:10129000804605E0FFF7E6FBA0EB0800642856D87F
:1012A00028680001F6D508E0FFF7DCFBA0EB08009A
:1012B00064284CD828680001F6D4206A90B3696885
:1012C000C1F38101022949D00228376603D0FFF714
:1012D000C9FB04463EE0FFF7C5FB074605E000BF3B
:1012E000FFF7C0FBC01B022831D828688001F7D463
:1012F000606AB0F5803F09D1E86A61680843E86236
:10130000E86AE16820F00F000843E862D4E90901C7
:101310000843696821F4741108436860C6F8609056
:1013200001E028E029E0FFF79DFB044605E000BF4F
:10133000FFF798FB001B022809D828688001F7D521
:101340001BE000BFFFF78EFB001B022802D9032021
:10135000BDE8F88F28688001F4D40EE00128F7D0AA
:101360006868626A00F48031914204D1A16A00F495
:101370007010884201D00120EAE70020E8E7000071
:10138000001002400000424280044242540C0020FF
:10139000007000401F480122016AB1F57A7F02DA2D
:1013A000491C016200E00271016921B1012900D1EB
:1013B0000270491E0161416921B1012900D14270C9
:1013C000491E4161816921B1012900D1C270491EC4
:1013D0008161C16921B1012900D18270491EC161B9
:1013E000416A002902DD416A491E4162C16A002941
:1013F00003DDC16AC16A491EC16206488030416A84
:10140000002901DD491E41628169002901DD491E73
:1014100081617047D408002010B5401EB0F1807F74
:1014200001D3012010BD4FF0E02460610F2160174F
:1014300000F04CFF0020A06107202061002010BDBB
:1014400010B5FFF7A7FF10BD7047704770B590F853
:101450003C20012A19D0012400F83C4F022242709E
:1014600050F83C3C5A689D6822F070060A6849684A
:10147000324325F0800529435A6050F83C2C916096
:10148000447000210170084670BD022070BD10B587
:10149000040003D094F83D0010B107E0012010BD16
:1014A000002084F83C00204600F00CF8022084F86C
:1014B0003D00211D206800F031FD012084F83D0031
:1014C000002010BD08B501681448B1F1804F14D058
:1014D000134A914220D1C16941F01001C161C06934
:1014E000002200F01000009011463620FFF756FB56
:1014F0003620BDE80840FFF743BBC16941F0010158
:10150000C161C069002200F00100009011461C205A
:10151000FFF744FB1C20ECE708BD00000010024070
:10152000001000400168CA6842F00102CA60006809
:10153000816801F00701062903D0016841F001012B
:10154000016000207047704770B50446006801696B
:101550004FF00005C943890715D4C168C9438907FD
:1015600011D4E91E0161012020772068806980077D
:10157000204602D0FFF7E7FF04E000F098F820468D
:1015800000F096F8257720680169C943490717D408
:10159000C168C943490713D46FF0040101610220F7
:1015A00020772068806910F4407F204602D0FFF742
:1015B000CAFF04E000F07BF8204600F079F82577B8
:1015C00020680169C943090716D4C168C9430907DE
:1015D00012D46FF008010161042020772068C069EF
:1015E0008007204602D0FFF7AEFF04E000F05FF86E
:1015F000204600F05DF8257720680169C943C906D7
:1016000017D4C168C943C90613D46FF01001016132
:10161000082020772068C06910F4407F204602D05F
:10162000FFF791FF04E000F042F8204600F040F898
:10163000257720680169C943C90708D1C168C94332
:10164000C90704D1891E0161204600F033F82068E3
:101650000169C943090609D4C168C943090605D40B
:101660006FF0800101612046FFF7EEFE20680169FE
:10167000C943490609D4C168C943490605D46FF076
:1016800040010161204600F06FF820680169C943FC
:1016900089060BD4C168C943890607D46FF02001BD
:1016A00001612046BDE87040FFF7CFBE70BD7047B6
:1016B0007047000070B500682649884206D1264C64
:1016C0002649E06B884202DA401CE06370BD224B81
:1016D000A26B44330021D3F8A852A3F1C400954271
:1016E0001EDD206A0028F1D153F83250606B85422C
:1016F00012DD58B903EBC200A3F1C4014068898927
:10170000012807D00022E069FFF7A7F9606B401CB1
:10171000606370BD0122F6E7521CC4E90D1270BD72
:10172000A16301252562E163C2890D4B42B1012A03
:1017300009D0022AF3D1C18140218181E36170BDCA
:10174000C5818021F9E70221C181C9018181054854
:10175000E06170BD0010004054090020DB8D0100E5
:1017600000100140000801407047704770B50268E2
:1017700004461068D168536910F00F0F51D003F080
:10178000010501F4907635435DD0C20705D0CA0546
:1017900003D5E26B42F00102E263420705D5DA07A6
:1017A00003D0E26B42F00202E263820705D5DA075A
:1017B00003D0E26B42F00402E263020705D5DA07C8
:1017C00003D0E26B42F00802E263E26B002A34D0FD
:1017D000800604D5880602D5204600F0FFFB20686D
:1017E0004069E16BC0F3801001F00801014320461D
:1017F00024D000F0E5FB2068416949061AD541690B
:1018000021F040014161606BA0B11B494163606BF5
:10181000FEF782FF002810D0606B416BBDE870407E
:10182000084783060FD58B060DD52046BDE87040CE
:1018300000F0D4BB2046FFF798FF70BDFFF795FF7F
:101840000020E06370BD030606D50B0604D52046D4
:10185000BDE8704000F06ABC4006F3D54806F1D5FB
:10186000D168204621F04001D160202184F8391050
:1018700000F036FA70BD0000B11F000870B504001A
:1018800004D094F83900002510B106E0012070BDA5
:1018900084F83850204600F023F8242084F83900DA
:1018A0002068C16821F40051C160204600F0E2FBCD
:1018B0002068016921F4904101612068416921F0AB
:1018C0002A0141612068C16841F40051C160E563AB
:1018D000202084F8390084F83A00002070BD000010
:1018E000F0B585B0002400940194029403945C49FF
:1018F0005A4DD0F800C00E15022203235948AC45BA
:1019000025D1CD6945F40025CD61CD6905F40025CB
:1019100004958D6945F010058D618969054601F0D2
:101920001001CDE90331CDE900626946FEF79EFF63
:101930007000CDE90004694628460294FEF796FF40
:10194000002211463420FFF729F934202FE0464DBC
:101950000427AC452FD1CD6945F48015CD61CD6903
:1019600005F4801504958D6945F010058D618D692C
:1019700005F0100504958D6945F020058D61896994
:10198000039301F020010491B902CDE900126946E8
:10199000FEF76CFFCDE90074694634480294FEF707
:1019A00065FF002211463520FFF7F8F83520FFF7D4
:1019B000E7F805B0F0BD2E482E4D844525D1886945
:1019C00040F480408861886900F480400490886910
:1019D00040F0040088618869694600F004000490C2
:1019E0006815CDE9000203932846FEF73FFFCDE9D5
:1019F0000064694628460294FEF738FF002211462B
:101A00002520FFF7CBF82520D1E71B488445D0D10E
:101A1000C86940F40030C861C86900F4003004901F
:101A2000886940F0040088618869694600F0040014
:101A3000CDE90330CDE900722846FEF717FF0820F4
:101A4000CDE90004694628460294FEF70FFF002204
:101A500011462620FFF7A2F82620A8E7004C0040F8
:101A600000100240001001400050004000140140EE
:101A700000380140000801400044004090F83A302E
:101A8000202B22D1F9B1F2B190F83830012B1CD0C3
:101A900081628285C2850021C163222280F83A20BA
:101AA00080F838100168CA6842F48072CA60016820
:101AB0004A6942F001024A610068C16841F02001B0
:101AC000C16000207047012070470220704700006D
:101AD0002DE9F047064601683C4800253C4C4FF094
:101AE00023084FF0010981421DD13A4F07F114013B
:101AF0007D7060793A780A54401CC0B260710D5410
:101B000014390122A1F18000FFF7B8FFC4F810805A
:101B100038780A2807D16079042803D984F800901E
:101B2000256100E065712C49306888421DD12B4F3A
:101B300007F114017D70E0793A780A54401CC0B274
:101B4000E0710D5414390122A1F52E70FFF796FFB4
:101B5000C4F8188038780A2807D1E079042803D916
:101B600084F80390A56100E0E5711D4930683227D3
:101B7000884212D11748DC3000F114014570027818
:101B8000A0790A54401CC0B2A0710D54143901222E
:101B9000A1F5CE70FFF772FFE76112493068884205
:101BA00012D10E48DC3000F1140145700278207A21
:101BB0000A54401CC0B220720D5414390122A1F500
:101BC0003570FFF75BFF6761BDE8F08700380140C3
:101BD000D4080020CC0D0020004C0040840F0020D1
:101BE00000500040004400402DE9F843044690F8BE
:101BF00039001F4616460D46202850D1A5B19EB18A
:101C000094F8380001284AD0012084F838004FF0B9
:101C10000008C4F83C80212084F83900FEF722FF38
:101C2000A6848146E68426E00120BDE8F883E08CA6
:101C3000401EE084A0684B46B0F5805F4FF0000284
:101C40004FF080012046009703D000F0A0FAE8B9D9
:101C50000DE000F09CFAC8B928882168C0F308009C
:101C60004860206908B16D1C05E0AD1C03E02168E7
:101C700015F8010B4860E08C0028D8D14B460022B3
:101C800040212046009700F082FA08B10320CCE7FB
:101C9000202084F8390084F838800020C5E702202D
:101CA000C3E790F83930202B18D1A9B1A2B190F830
:101CB0003830012B12D001628284C2840021C163BA
:101CC000212280F8392080F838100068C16841F07E
:101CD0008001C160002070470120704702207047DA
:101CE0007047FEE73EB500240D480094019402942D
:101CF0000A498460016004730475012505614FF48D
:101D000060214460C161FEF74DFC0620CDE900056D
:101D1000694602940248FEF7C7FB3EBD002401401D
:101D20005C0C002070B586B0002418480094019423
:101D300002940394816941F020018161816901F07D
:101D400020010491816941F004018161816901F000
:101D500004010491816941F01001816180690C4E98
:101D600000F010004FF430750490002229463046F0
:101D7000FEF773FE01200095CDE9010402200390D7
:101D800069463046FEF772FD06B070BD0010024095
:101D900000100140FEE77047704770472DE9FE4391
:101DA0001E4E05460C46304600F0EAFC6420FEF765
:101DB0004BFD11222946304601F01EFB6420FEF740
:101DC00043FD29462046FEF75CFA0025E5700A220D
:101DD00002A92046FEF75EFA8046E5710A2202A9B2
:101DE000201DFEF757FA0646E5720A2202A904F101
:101DF0000800FEF74FFA0746E5730A2202A904F12C
:101E00000C00FEF747FACDE900703346424604A1C4
:101E1000204600F047FABDE8FE83000000200108DC
:101E200025642E25642E25642E25640010B5FEF74A
:101E30004FFEBDE81040FFF703BB000070B59CB03B
:101E400038216846FEF7EDF914210EA8FEF7E9F9EE
:101E5000202113A8FEF7E5F90920009001250024B0
:101E60004FF480300795CDE902040226CDE90860E1
:101E7000059501944FF4E010CDE90A046846FFF798
:101E800097F80F20CDE90E06A802CDE910400221F7
:101E90000EA81294FEF778FFE8031590139613A886
:101EA000FEF7AEFE014805671CB070BD000042425F
:101EB0001048016841F00101016041680E4A11407B
:101EC000416001680D4A11400160016821F48021E0
:101ED0000160416821F4FE014160016821F0A051D8
:101EE00001604FF47F0181600021C1620449C00399
:101EF00008607047001002400000FFF0FFFFF6FE90
:101F000008ED00E00148FFF71FBB0000CC140020E3
:101F10000148FFF719BB00008C0C0020F0B50268E7
:101F2000194B1A4C1A4D1B4E4FF08047984207D060
:101F3000B84205D0A04203D0A84201D0B04204D19B
:101F400022F0700C4A6842EA0C02984207D0B8426C
:101F500005D0A04203D0A84201D0B04203D122F460
:101F60004074CA6822434C6922F080022243026016
:101F70008A68C2620A688262984201D10969016373
:101F800001214161F0BD0000002C0140000400402F
:101F900000080040000C00400148FFF7E7BB0000CC
:101FA000CC0C00200148FFF7E1BB00000C0D002025
:101FB00010B5406A0021C185C184FFF7D6FB10BD72
:101FC0000168CA6822F49072CA6001684A6922F006
:101FD00001024A61202180F83A10704710B590F84C
:101FE0003A10222901D0022010BD8168B1F5805F2E
:101FF00011D00169002901681FD0496801F07F03F1
:10200000816A4A1C82620B70C18D491E0904090C49
:10201000C18518D02BE00269816A002A02685268E3
:1020200005D0D2B20A80816A491C8162ECE7C2F312
:1020300008020A80816A891CF7E74A68816A4B1C9A
:1020400083620A70E0E70168CA6822F02002CA6071
:102050000168CA6822F48072CA6001684A6922F085
:1020600001024A61202180F83A10FFF731FD00207B
:1020700010BD00002DE9F041044600680169E268E6
:1020800021F44051114301612169A068084361694D
:1020900008432168CA6841F20C639A430243CA604C
:1020A00020684169A26921F44071114341611E49D0
:1020B000206864253226884202D1FEF70BFF01E03A
:1020C000FEF7F8FE00EBC00101EB001160686FF055
:1020D00018078000B1FBF0F2B2FBF5F2B1FBF0F3B0
:1020E0007A4303EB8202B1FBF0F306EB0212B2FB80
:1020F000F5F2B3FBF5F302F0F00202EB0312B1FBD1
:10210000F0F3B1FBF0F0B0FBF5F0784303EB8000A7
:1021100006EB0010B0FBF5F0216800F00F00104452
:102120008860BDE8F08100000038014090F8391067
:10213000212901D0022070478168B1F5805F016AD2
:102140000BD04A1C0262026809785160C18C491E9A
:102150000904090CC1840ED017E009880268C1F394
:102160000801516001690029016A02D0491C01621D
:10217000ECE7891CFBE70168CA6822F08002CA60AC
:102180000068C16841F04001C160002070472DE93E
:10219000F041984617460E460446069D1DE0681C11
:1021A0001BD02DB1FEF75EFCA0EB0800A84214D9AD
:1021B0002068C16821F4D071C1602068416921F0B4
:1021C00001014161202084F8390084F83A000020A0
:1021D00084F838000320BDE8F0812068006836EA02
:1021E000000004D00020B842D9D00020F3E701203D
:1021F000F9E700000148FFF7B9BA00004C0D0020D4
:102200000148FFF7B3BA00008C0D0020F0B585B08F
:102210000024184F00940194029422464FF4006168
:1022200038460394FEF719FC4FF49240012502262C
:10223000CDE90005CDE9024669463846FEF716FBB2
:102240000D48816941F00801816180690B4F00F000
:10225000080004900022E0213846FEF7FEFBE02053
:10226000CDE90005CDE9024669463846FEF7FEFA9B
:1022700005B0F0BD0008014000100240000C014014
:10228000FEE700000FB4054B10B503A9044A0298FD
:1022900000F040F810BC5DF814FB0000B9270008FE
:1022A000440C00200FB4084B10B504A902AA0398EF
:1022B00000F030F8044602A9002000F05CFA204645
:1022C00010BC5DF814FB0000772700080907090E11
:1022D000002804DB00F1E02080F80014704700F0D3
:1022E0000F0000F1E02080F8141D7047004870478F
:1022F000580C002002E008C8121F08C1002AFAD1B9
:1023000070477047002001E001C1121F002AFBD175
:10231000704700002DE9FF4F8DB00F46054600269F
:1023200006E025280BD0DDE90F1290476D1C761CC6
:1023300028780028F5D111B03046BDE8F08F002490
:10234000A246A1460122EC4900E0044315F8013FF2
:10235000203B02FA03F00842F7D128782A2810D04F
:102360006FF02F022878A0F13001092914D80AEB68
:102370008A0102EB410144F0020400EB010A6D1CEA
:10238000F0E701CF5FEA000A03D544F40054CAF134
:10239000000A44F002046D1C28782E2817D115F885
:1023A000010F44F004042A280ED06FF02F02287881
:1023B000A0F1300109290AD809EB890102EB41019A
:1023C00000EB01096D1CF2E757F8049B6D1C28789F
:1023D0006C280FD006DC4C2817D068280DD06A284E
:1023E00014D104E0742810D07A280FD10DE044F401
:1023F00000140AE044F4801401E044F440146978C5
:10240000814202D104F580146D1C6D1C2A786E2A5D
:102410001FD00CDC632A31D004DC002A8BD0582A70
:1024200011D1A3E0642A68D0692A0CD165E0732A2F
:102430002ED004DC6F2A73D0702A04D19BE0752A59
:102440006FD0782A6ED01046DDE90F129047761CC7
:1024500050E1C4F30250022806D0032809D0042812
:1024600001CF09D0066045E101CFF117C0E9006155
:1024700040E101CF06803DE106703BE117F8040B17
:102480008DF8000000208DF80100EB46012003E0EC
:1024900057F804BB4FF0FF3061074FF0000102D442
:1024A0000DE008F10101884649450FDA8045F8DB67
:1024B0001BF808100029F4D108E008F10101884652
:1024C0008142FADB1BF808100029F6D1DDE90F2361
:1024D000AAEB08008146214600F036F9304400EBB3
:1024E000080604E0DDE90F121BF8010B9047B8F174
:1024F0000108F7D221464846F7E00A21C4F3025307
:102500004FF0000B0891022B04D001CFC117032B11
:1025100009D00AE0FF1D27F00707F7E8020108E0ED
:1025200032E01FE020E000B2C117042B01D140B21D
:10253000C117031E71F1000307DA4FF0000CD0EB56
:102540000C006CEB01012D2302E0230504D52B23A5
:102550008DF82430012303E0E30701D02023F7E7BF
:10256000984658E00A2110E010210EE010204FF0AC
:10257000000B08900CE010214FF0000B44F0040415
:102580004FF00809089103E008214FF0000B089173
:10259000C4F30253022B04D001CF0021032B06D039
:1025A00006E0FF1D27F00707F7E8020103E080B20D
:1025B000042B00D1C0B24FF0000823072BD5702A9E
:1025C00007D0DDF820C08CF0100C5CEA0B0C05D0B5
:1025D0000EE040238DF82430012308E050EA010387
:1025E00006D030238DF824308DF82520022398461C
:1025F000DDF820C08CF0080C5CEA0B0C0BD150EA23
:10260000010301D1630706D530238DF824304FF044
:102610000108A9F10109582A04D038A20B9208AA8E
:102620000A920BE03AA2F9E75B46089AFDF7ACFD87
:102630000B9B9B5C0A9A521E0A92137050EA01028D
:10264000F2D10A98ADEB000000F1200B600702D533
:1026500024F4803401E04FF00109D94502DDA9EBF3
:102660000B0000E0002000EB0B0141440890AAEBB6
:10267000010AE00306D4DDE90F232146504600F0AD
:1026800063F806444FF0000908E009A911F80900B1
:10269000DDE90F12904709F10109761CC145F4DB11
:1026A000E0030CD5DDE90F232146504600F04CF83D
:1026B000064404E0DDE90F1230209047761C0899AB
:1026C000481E08900029F5DC08E00A980A9900786D
:1026D000491C0A91DDE90F129047761CBBF10001FD
:1026E000ABF1010BF1DC21465046DDE90F2300F090
:1026F00019F806446D1C1BE60928010030313233FD
:10270000343536373839616263646566000000002D
:102710003031323334353637383941424344454617
:10272000000000002DE9F041044600251E46174632
:10273000880404D405E039462020B0476D1C641E8F
:10274000F9D52846BDE8F0812DE9F0410446002581
:102750001E469046C80301D5302700E02027880494
:1027600004D505E041463846B0476D1C641EF9D5D6
:102770002846BDE8F0810A68531C0B601070704752
:102780000B490A4A4A600B4A4A600A6922F0010270
:102790000A610A6942F002020A614861086940F070
:1027A00040000861C868C007FCD170472301674535
:1027B00000200240AB89EFCD13B5054840F6FF730A
:1027C00001226946006CFFF70FFA00981CBD00005B
:1027D00054090020ACB00427FEF782F9F548F4490B
:1027E00001600521416040F6AA218160FEF740F9B1
:1027F000FFF724FBFFF796FAFFF774FAEF4EEE4867
:102800004FF4165830600024C6E901840C25F460AA
:10281000C6E90445B4613046F461FFF72FF8A6F12C
:102820008000E74901600146C1F804808460C4600B
:10283000046145618461C461FFF720F8A6F140009E
:10284000E0490160C0E90184C460C0E904458461D5
:10285000C461FFF713F806F14000DB490160C0E9ED
:102860000184C460C0E904458461C461FFF706F8CF
:10287000A6F1C0000094D5490194C0E900144FF4BA
:102880002F71C0E9024180218161FEF700FE0094B2
:102890006946A6F1C0000194FEF7D8FDFFF7B6FC2B
:1028A000CB4DCCA02E64FFF7EDFC012206F1800198
:1028B0003046FFF7E3F806F545710122A1F53570C2
:1028C000FFF7DCF806F5AE710122A1F5CE70FFF737
:1028D000D5F806F50E710122A1F52E70FFF7CEF89E
:1028E000A5F1800144F6206AC1F82CA0A6F1C00031
:1028F000FEF718FE01224021BC48FEF7AEF840F674
:10290000FF732246BAA1A6F18000FFF76DF9DFF848
:10291000EC822C2220A9404600F062FDB8A02E6473
:10292000FFF7B0FC032220A929A8FDF797FC0A2293
:1029300028A929A8FDF7AEFC0646BFA0FFF7A2FC18
:10294000A6F10A00F62816D346464046FFF718FFC0
:102950006420FDF779FF0F22C3A120A8FDF77EFCBC
:10296000C5A0FFF78FFC2C2220A9304600F044FDC3
:102970006420FDF769FFDFF84492CAA04E46C5F80F
:102980004090FFF77FFC20A918A8FDF77AFC8DF88E
:1029900063400A2228A918A8FDF77CFC02908DF854
:1029A00067400A2228A919A8FDF774FC83468DF810
:1029B0006B400A2228A91AA8FDF76CFC80468DF806
:1029C0006F400A2228A91BA8FDF764FCCDE900800E
:1029D0005B46BFA118A8029AFFF764FC18A9BFA024
:1029E0002E64FFF74FFC18AAC0A1C848FFF75AFC95
:1029F0002E46774DDFF818B3803D2879012808D19D
:102A00002C6281032C71C348FEF720F86948FEF759
:102A100058F8706A50BBDFF8FC820122D1024046B0
:102A2000FEF71BF84FF47A70FDF70EFF00224FF40B
:102A300000614046FEF711F8DFF8DC8200228021B9
:102A40004046FEF70AF8002240214046FEF705F80E
:102A5000002220214046FEF700F842F21070FDF7F8
:102A6000F3FEAE487062C5F82CA02C63012F04D091
:102A7000022F7DD0042F7CD0BEE2E86A0028FBD173
:102A8000687A0128286B0AD0002873D0A87A012818
:102A900071D001206872092028635046A3E20F28F4
:102AA000286B69DA401C2863286B00EBC00000EB40
:102AB00040010BEB81009AA1FDF7BEFB002875D108
:102AC000286B00EBC00000EB40010BEB8100FDF731
:102AD000D1FB00286AD0286B00EBC00000EB40015E
:102AE0000BEB81008EA1406EFDF7A6FB00285ED0A7
:102AF00007CEEB6F0DF1540C14938CE8070005F131
:102B00006C000DF1400C0FC88CE80F0096E8070030
:102B1000AB6E0DF1340C0C938CE8070005F1480105
:102B2000686E0EC9CDE90A30CDE9081205F138000A
:102B30000DF1100C0FC88CE80F0005F15801686BFF
:102B40000EC9CDE90012CDE9023076A279497A4862
:102B50000C3E6B6DFFF7A6FB7748FDF78BFB7649C4
:102B60001A22471C0A54CC5574A0C6F8409004E0C1
:102B700022E116E217E11BE111E1FFF783FB40F2CE
:102B8000DC584046FDF760FE6B49BAB240F6FF7371
:102B9000A1F5C060FFF728F84046FDF755FE69A093
:102BA000C6F84090FFF76EFB0227E4E0E9E0D5E0CD
:102BB00000300040C0140020003801404C0D0020BF
:102BC000004C004000500040004400400010004015
:102BD000540900205374617274696E6720436F64F6
:102BE00065202E2E2E200D0A00000000001001404E
:102BF00041542B43474D4D0D0A00000000200108B1
:102C000047455454494E472049502046524F4D2085
:102C1000464C415348202D2D2D2D2D2D2D2D2D2D64
:102C20002D2D2D2D2D2D2D2D2D2D2D2D2D2D2D2DD4
:102C30002D2D2D0D0A0D0A00495020434F4E5645AB
:102C40005254202D2D2D2D2D2D2D2D2D2D2D2D2D75
:102C50002D2D2D2D2D2D2D2D2D2D2D2D2D2D2D2DA4
:102C60000D0A0D0A000000003033362E3235352EA5
:102C70003036382E313237007374726E63707920BB
:102C80002D2D2D2D2D2D2D2D2D2D2D2D2D2D2D2D74
:102C90002D2D2D2D2D2D2D2D2D2D2D2D2D0D0A0DC7
:102CA0000A00000047455454494E472049502D2DF5
:102CB0002D2D2D2D2D2D2D2D2D2D2D2D2D2D2D2D44
:102CC0002D2D2D2D2D2D2D2D2D2D2D0D0A0D0A00E7
:102CD00025642E25642E25642E25640053544F52FE
:102CE0004544204950203A202573000041542B438D
:102CF000495053544152543D22544350222C2225D2
:102D000073222C223830220D0A000000E805002032
:102D1000B001002000080140000C014080A9030020
:102D20005E5A0000474554202F70696E6C6F672E05
:102D30007068700054350008CC1200202D2D3E3EE6
:102D40002025730053454E44494E47204441544189
:102D5000202B204354524C2B5A0D0A00FD4830645E
:102D6000286B00EBC00000EB40010BEB8101AFF2E0
:102D70008800FFF787FAC820FDF766FDC820FDF739
:102D800063FD6C72286B00EBC00000EB40010BEBA5
:102D90008100816E4FF47A704143E9622CE1092889
:102DA000FCDD092002E001206872801E286323E117
:102DB000AC72012068721FE1686AE8BBF06A58B91A
:102DC000EC662C676C67AC67EC6734607460B46069
:102DD000F460346174616C66DFF87C83082208EB70
:102DE0000011DC480831C030FEF75BFFC820FDF75A
:102DF0002BFDC6F84090F16A08EB011090F80FC067
:102E000090F80E80437B027BCDE9048CCDE9022350
:102E1000C37A827ACDE90023437A027ACFA0FFF702
:102E200031FA4FF448706862A86A401CA862F06AE0
:102E30000C2804DA401C00E007E0F06205E0A86A14
:102E40000C2802DDAC620127F4626878012873D196
:102E5000F06A002801DD401E00E00C2030636C7039
:102E6000BD48316B00EB01100068012816D0022824
:102E70001AD004281ED0052822D0062826D00A28D9
:102E80002AD00B282ED00C2832D0072836D008287C
:102E90003ED0092846D00D284FD057E0BB48B0F8A7
:102EA000030040BAE86651E0B848B0F8030040BA01
:102EB00028674BE0B548B0F8030040BA686745E0C2
:102EC000B248B0F8030040BAA8673FE0AF48B0F896
:102ED000030040BAE86739E0AC48B0F8030040BAF4
:102EE000F06033E0A948B0F8030040BA30612DE04B
:102EF000A648B0F8030040BA706127E0A348D0F8B4
:102F00000310807909BA21F0FF01014331601DE00F
:102F10009E48D0F80310807909BA21F0FF010143DF
:102F2000716013E09948D0F80310807909BA21F054
:102F3000FF010143B16009E056E09448D0F8031066
:102F4000807909BA21F0FF01014369666420FDF729
:102F50007BFC06F10C01686E0EC9CDE90830CDE9A5
:102F6000061296E80700EB6F0DF10C0C02938CE84B
:102F70000700D5E91D01CDE900018448D5E91B23EF
:102F80008349C830FFF78EF9804AC6F84090C832AE
:102F900080A0316BFFF776F93220FDF755FC2C72DB
:102FA0002AE0E86A00BB286B04281EDA286B401C64
:102FB000286368483064286B794900EBC00000EB57
:102FC000400001EB8001AFF2E020FFF75BF96C728B
:102FD000286B00EBC00000EB40010BEB81004FF4CD
:102FE0007A71806E4843E86206E06C72C5F82CA0E6
:102FF0004FF0FF3028630127B06960B93462AC65D7
:10300000EC652C666C65AC63EC632C646C63AC643F
:10301000EC642C656C64E878012875D1EC705B4930
:1030200060A0DC39C6F84090FFF72CF9286B00EB64
:10303000C00000EB40010BEB81005EA1406EFDF78C
:10304000FBF810B10120A8720EE150485BA1DC38FA
:10305000FDF7F2F880B9286B00EBC00000EB4001EF
:103060000BEB810059A1FDF7E7F868B147485AA179
:10307000DC38FDF7E1F838B1012068724FF4FA60EE
:10308000E86209202863EFE0404856A1DC38FDF7EC
:10309000D3F8A0B16C72C5F82CA02C63DFF8508176
:1030A0000122802140467462FDF7D7FC00224021B6
:1030B0004046FDF7D2FC002220214046D2E0286B9A
:1030C00000EBC00000EB40010BEB81003FA1FDF7DE
:1030D000B3F8D0B12D4847A1DC38FDF7ADF8A0B169
:1030E00001206872286B032808D101228021404802
:1030F000FDF7B3FC6C72C5F82CA02C636C72C5F89C
:103100002CA02C637462AFE0AFE0286B00EBC00032
:1031100000EB40010BEB8100416E1C48DC38FDF7F1
:103120008BF8B0B101206872E96A4FF47A7081427D
:1031300000DDE862286B072804DB012220212C48EF
:10314000FDF78BFC286B0A285ADB01224021284816
:1031500054E059E0CC0C0020040800202564203AFB
:103160003A20253032582025303258202530325828
:103170002025303258202530325820253032582032
:103180002530325820253032580D0A0074100020A6
:10319000503700082564207C2025730D0A000000AC
:1031A000000000204D4F44454D203A3A2025730D34
:1031B0000A0000005F5F45474F000000414C524548
:1031C00041445920434F4E4E4543540043495053C8
:1031D000544154555300000054435020434C4F5326
:1031E000450000002B5044503A20444541435400D0
:1031F000000C01404552524F52000000FDF72DFCDB
:10320000286B0E282BDA2FE05A495BA0C6F84090B5
:10321000FFF738F85CA15748FDF70EF8D0B15CA174
:103220005448FDF709F8A8B159A15248FDF704F830
:1032300084748046C11C57A0C6F84090FFF722F85E
:1032400018A908F10300FEF7A9FD6C72C5F82CA0BF
:103250002C63746253A14748FCF7EEFF20B10022B3
:1032600040215248FDF7F9FBEC71A878012858D1AC
:10327000AC70A8790D2835D942F21070B061E88998
:1032800020B1012818D002285ED02BE03948DC3864
:10329000818949BAE965418949BA2966417AA965AE
:1032A0004178C07801F00F0100F00F0000EB8000C2
:1032B00001EB4000686514E02E48DC38818949BA8A
:1032C000E963418949BA2964417AA9634178C078A0
:1032D00001F00F0100F00F0000EB800001EB400057
:1032E00068633462B06A401CB062052818DD05F1DD
:1032F0004400C6F84090B4620FC8CDE9070105F15B
:103300003400CDE905230FC8CDE90301CDE9012340
:10331000A86D0090D5E9171225486B6DFEF7B2FF36
:10332000AC71287801287FF468AB2C7021A1234868
:10333000FCF782FF28B1082721A0C6F84090FEF7CD
:10334000A1FF6C71FFF759BB0A48DC38818949BA83
:10335000E964418949BA2965417AA9644178C0780C
:1033600001F00F0100F00F0000EB800001EB4000C6
:103370006864B6E7980F002052455455524E203AE3
:103380003A2025730D0A00002B434D543A000000EB
:103390006970000049502041444452455353203A3B
:1033A00020257300434C4F5345440000000C01405E
:1033B000E83600085041555345000000E00D00205C
:1033C0002D2D2D2D2D2D2D2D2D2D2D504155534590
:1033D000442D2D2D2D2D2D2D2D2D2D2D00000000BA
:1033E000520805E030F8023B521E21F8023B92B22F
:1033F000002AF7D17047000070B55308134A144CE7
:10340000144D1EE054605560166926F002061661E0
:10341000166946F0010616610E880680D668F60722
:10342000FCD1D668760702D54FF0FF3070BDD66864
:10343000F60602D56FF0010070BD5B1E801C9BB2CA
:10344000891C002BDED1002070BD0000002002404E
:1034500023016745AB89EFCD0000000000000000AC
:10346000010203040607080900000000010203042A
:103470000040404040404040404041414141414087
:10348000404040404040404040404040404040403C
:1034900040050202020202020202020202020202CB
:1034A00002202020202020202020200202020202D0
:1034B0000202909090909090101010101010101028
:1034C0001010101010101010101010100202020234
:1034D0000202888888888888080808080808080878
:1034E0000808080808080808080808080202020274
:1034F00040000000713400083E000000434C4F5370
:103500004544000053454E44204F4B00434F4E4E20
:10351000454354204F4B0000495020494E495449DF
:10352000414C00005F5F45474F0000004950205369
:1035300054415455530000004950204750525341C4
:10354000435400004950205354415254000000009D
:103550005E5A000025733F73657269616C3D3030BF
:1035600030303030303333333226696D65693D3861
:1035700036343731333033393837303332372663E6
:103580006369643D5544553230313430373236301A
:1035900039267369746569643D5349544530303048
:1035A00030303030392664657669643D30783030AB
:1035B0003030303030432663656C6C6E6F3D2B3895
:1035C0003830303030303030303030302664636363
:1035D000757272656E746F623D25642664636B77E5
:1035E000686F75743D2564266463696E6F623D255E
:1035F000642664636F75746F623D2564266463633B
:10360000757272656E746F62313D25642664636BFA
:1036100077686F7574313D2564266463696E6F62E7
:10362000313D25642664636F75746F62313D256496
:1036300026646363757272656E746F62323D2564D1
:103640002664636B77686F7574323D256426646306
:10365000696E6F62323D25642664636F75746F62B4
:10366000323D25642661636B776873756E3D256412
:1036700026696E706F7765723D256426616C617294
:103680006D313D256426616C61726D323D25642685
:10369000616C61726D333D256426707631766F6C96
:1036A000743D256426707632766F6C743D256426F1
:1036B00061766F6C743D25642662766F6C743D256F
:1036C000642663766F6C743D256426616375723D74
:1036D000256426626375723D256426636375723DB9
:1036E00025640D0A0D0A0000494E313A3A2564203E
:1036F0004F5554313A3A25642043555252313A3AA3
:103700002564204B5768313A3A256420494E323AB5
:103710002564204F5554323A256420435552523285
:103720003A2564204B7768323A256420494E333A73
:103730002564204F5554333A256420435552523363
:103740003A2564204B7768333A25640D0A0000005F
:103750005056312D2564205056322D256420417657
:103760006F6C742D25642042766F6C742D25642057
:1037700043766F6C742D256420416375722D25642A
:1037800020426375722D256420436375722D256474
:1037900020416C726D312D256420416C726D322D8B
:1037A000256420416C726D332D256420416374695A
:1037B0007665706F7765722D25640000DC37000830
:1037C000000000205C0C000000040008B83900086C
:1037D0005C0C0020B40C0000042300080560415478
:1037E0000D0A1314353308050D5E415445316E89B9
:1037F0006C0F5A2B434D47463D71A96C280A4E4D1C
:10380000493D312C322C3002095174896C0959D14F
:10381000F96C0A5245CB0981D8080B562B43495005
:10382000535441545553769A186C28135354543DAD
:10383000226770696E7465726E6574222C220309AA
:10384000487A096AD8AA446C0C5649435268096EF2
:10385000D8AA386C0B5B4653D80A6924D8EA2C6C7A
:10386000181852543D22544350222C2233362E3203
:1038700035352E36382E313237100C3C3830228612
:10388000CA0C6C0559454E440D4BF8346C08183C75
:10389000474554202F676174657761792F70696E91
:1038A0006C6F672E706870C9F11A50D832140362B9
:1038B0005E5A5A046C01644BFC346C6A01041403B4
:1038C0007D1035019DA30229041910121235013C07
:1038D00063032904191012402D02DDB304A8491016
:1038E000124535018DB30529041910124635017DA5
:1038F000B30629041910124735012C73072904193E
:1039000010124835025C710829041910124A350258
:10391000FDB10929041910124C35021DB00A290401
:103920001910120835011DA40B29041910120935AC
:10393000014C640C29041910120A3501BC640D29CC
:103940000419101250C402DC760217402AB8510143
:10395000743B100193041DC04504725E2A14D831D3
:10396000721F5A0A10DA3E10DA68102908A9100AE4
:103970002553302928091240091E500916A04BD0A2
:103980000710E9D0695069100A2D4870E9202948CC
:10399000091210E97069200A15685069300A1D344F
:1039A00070091EA0091E4069A0290C290401B89ABB
:0839B0003EC882105324F4000C
:04000005080001519D
:00000001FF
