:020000040800F2
:10000000780F002065010008E71C0008E31B0008CA
:10001000E51C0008490300082D210008000000002D
:10002000000000000000000000000000EB1C0008C1
:100030004B03000800000000E91C0008ED1C00084C
:100040007F0100087F0100087F0100087F01000890
:100050007F0100087F0100087F0100087F01000880
:100060007F0100087F0100087F0100087F01000870
:100070007F0100087F0100087F0100087F01000860
:100080007F0100087F0100087F0100087F01000850
:100090007F0100087F0100087F0100087F01000840
:1000A0007F0100087F0100087F0100087F01000830
:1000B000C51D00087F0100087F0100087F010008BE
:1000C0007F0100087F0100087F0100087F01000810
:1000D0007F01000815210008212100087F01000888
:1000E0007F0100087F0100087F0100080000000078
:1000F0000000000000000000000000000000000000
:1001000000000000000000007F0100087F010008DF
:10011000B91E0008C51E00087F0100087F01000805
:100120007F0100087F0100087F0100087F010008AF
:100130007F0100087F0100087F0100087F0100089F
:100140007F0100087F0100087F0100087F0100088F
:10015000DFF80CD000F094F8004800474126000872
:10016000780F00200648804706480047FEE7FEE774
:10017000FEE7FEE7FEE7FEE7FEE7FEE7FEE7FEE757
:10018000711D0008510100082DE9F05F05460020AF
:1001900092469B4688460646814640241BE02846F8
:1001A00041464746224600F020F853465A46C01AB8
:1001B000914110D311461846224600F051F82D1AED
:1001C00067EB01084F4622460120002100F048F865
:1001D00017EB00094E41201EA4F10104DFDC484664
:1001E00031462A464346BDE8F09F202A04DB203AE8
:1001F00021FA02F00021704721FA02F3D040C2F147
:1002000020029140084319467047D2B201E000F83D
:10021000012B491EFBD270470022F6E710B51346AA
:100220000A4604461946FFF7F0FF204610BD30B5D8
:1002300005462A460B4612F8010B13F8014B08B18C
:10024000A042F8D01CB1002802D06D1CF1E728466E
:1002500030BD421C10F8011B0029FBD1801A7047E9
:10026000202A04DB203A00FA02F100207047914076
:10027000C2F1200320FA03F31943904070470000B5
:10028000064C074D06E0E06840F0010394E80700E3
:1002900098471034AC42F6D3FFF75EFF8C2F00086E
:1002A000AC2F000870B58C1810F8015B15F007032F
:1002B00001D110F8013B2A1106D110F8012B03E0FF
:1002C00010F8016B01F8016B5B1EF9D12B0705D407
:1002D0000023521E0DD401F8013BFAE710F8013B50
:1002E000CB1A921C03E013F8015B01F8015B521E6C
:1002F000F9D5A142D8D3002070BD000070B50446E6
:1003000000688168C943C9071CD1816821F00101D7
:10031000816000F0F9FA05460FE000BF00F0F4FA42
:10032000401B022809D9A06A40F01000A062E06AD0
:1003300040F00100E062012070BD20688068C04389
:10034000C007EBD0002070BDFEE77047F8B5002471
:10035000009490F824202546012A12D0012280F82A
:1003600024204A681F23072A0DD20668776B521E85
:1003700002EB820293409F430B6893401F437763D5
:1003800019E00220F8BD06680D2A0AD2376BD21F89
:1003900002EB820293409F430B6893401F433763F5
:1003A00009E0F76A0D3A02EB820293409F430B6823
:1003B00093401F43F7620A68072306680A2A0AD394
:1003C000F7680A3A02EB420293409F438B689340DE
:1003D0001F43F76008E0376902EB420293409F43F6
:1003E0008B6893401F4337610A68102A01D0112A95
:1003F00020D1124B02689A4217D193681B0219D47C
:10040000936843F4000393600968102912D10C49E2
:100410000C4A0968B1FBF2F101EB8101490000E0EF
:10042000491E00910029FBD104E0816A41F02001BE
:100430008162012480F824502046F8BD0024014048
:100440000003002040420F002DE9F0414FF000076B
:1004500004003D467ED0A06A002628B9E66284F8F2
:100460002460204600F07EF82046FFF747FFA16A8F
:1004700001F01001014304D0A06A40F01000A06216
:1004800068E0A16A21F4885141F00201A16262682A
:10049000E169237B0A4347EA43010A43A1684FF419
:1004A0008077B94208D0012906D0002194F814C001
:1004B000BCF1010F02D00AE03946F7E7F3B1A36AB5
:1004C00043F02003A362E36A43F00103E36223687D
:1004D000D3F804C02CF4694C4CEA010CC3F804C0F6
:1004E00023689968DFF870C001EA0C011143996034
:1004F000A168B9420BD0012909D00CE0DFF85CC03B
:10050000A3690CEB43330B4343F40061DFE7218A1B
:100510000D05A5F580152168CB6A23F470032B43E4
:10052000CB62216889680E4B1940914208D1E6627E
:10053000A16A21F0020141F00101A162BDE8F08150
:10054000A06A20F0020040F01000A062E06A40F0D3
:100550000100E0620120F1E7FDF7E1FF00E0FFFFAD
:10056000FE0E1FFF00B585B00021009101910291A0
:10057000039100680E49884218D10E48816941F400
:1005800000718161816901F400710491816941F018
:10059000040181618069694600F0040004904020F4
:1005A000009003200190044800F0B2F805B000BDAF
:1005B0000024014000100240000801402DE9F05FD6
:1005C00090F821100024022903D004218163012422
:1005D00085E001680A6822F00E020A6001680A6874
:1005E00022F001020A603F4E3E4FB215DFF8F4C020
:1005F000DFF8F090DFF8ECA0DFF8E8B0DFF8E4E037
:100600000168783F13011502ACF1640CA9F150099F
:10061000AAF13C0AABF1280BAEF1140E4FF480188E
:10062000B14227D9B9420ED0614512D049451DD0FB
:10063000514518D0594518D0714501D1424615E0B1
:10064000294EB14201D1012210E0274E1436B142A9
:1006500001D110220AE0244E2836B14206D0224AA7
:100660003C32914201D11A4600E02A461E49091F38
:100670000A602BE0B94213D0614517D0494522D01A
:1006800051451DD059451DD0714501D142461AE052
:10069000B14202D14FF0807215E0134EB14201D148
:1006A000012210E0104E1436B14201D110220AE0AE
:1006B0000D4E2836B14206D00B4A3C32914201D150
:1006C0001A4600E02A46074980394A60012180F82D
:1006D0002110002180F82010416B01B1884720468D
:1006E000BDE8F09F800002400804024070B5044657
:1006F00000F00AF90546601C02D004480078044462
:1007000000F002F9401BA042FAD370BDF4020020B1
:100710002DE9F84FDFF8B891002409F1040A0AF135
:10072000040B23460F270BF1040EC9E00125A54059
:100730002A40AA427DD1674ED1F804C0ACEB06082E
:10074000B44532D014DCBCF1030F3AD009DCBCF163
:10075000000F2AD0BCF1010F1CD0BCF1020F31D127
:100760001DE0BCF1110F17D0BCF1120F2AD119E016
:10077000B8F5881F19D006DCB8F5803F15D0B8F55C
:10078000801F1FD111E0B8F5001F0ED0B8F5041F6F
:1007900018D10AE0CB6815E0CB681B1D12E0CB68CE
:1007A00008330FE0CB680C330CE08B682BB1012BC6
:1007B0004FF0080303D0456104E0042302E0056123
:1007C00000E00023FF2A01D8064601E000F10406FC
:1007D0004FEA840501D9A5F12005D6F8008007FA73
:1007E00005FC28EA0C0803FA05F548EA0508C6F8EE
:1007F00000804D68ED0062D5374DAE6946F00106C8
:10080000AE61AD6924F0030605F001050095334D96
:1008100006EB050CDCF80850A607360F07FA06F8B9
:1008200025EA0805DFF8B880404503D14FF00008FD
:1008300017E044E0DFF8AC80404502D14FF00108FA
:100840000FE0DFF8A480404502D14FF0020808E035
:10085000DFF89880404502D14FF0030801E04FF0E7
:10086000040808FA06F848EA0508CCF808804D683C
:10087000D9F80060ED034D4601D5164300E09643DC
:100880002E604D68DAF80060AD03554601D5164379
:1008900000E096432E604D68DBF80060ED025D4697
:1008A00001D5164300E096432E604D68DEF80060E7
:1008B000AD02754601D5164300E096432E60641CD8
:1008C0000D682A46E5407FF431AFBDE8F88F00009F
:1008D000000401400000111000100240000001401F
:1008E00000080140000C01400010014000140140CC
:1008F000C2680A4201D041617047016170470AB184
:10090000016170470904FBE70148806870470000F7
:10091000F402002070B5040011D021684CF6CC40E0
:100920000860216845F255500860D4E90001416033
:100930002168A0688860FFF7E7FF054609E001200D
:1009400070BD00BFFFF7E0FF401B302801D9032036
:1009500070BD2068C0680028F4D121684AF6AA203A
:100960000860002070BD00684AF6AA2101600020DE
:100970007047000002488168027811448160704726
:10098000F4020020074810B5016841F01001016031
:10099000032000F075F8002000F006F800F024F8BD
:1009A000002010BD0020024070B50D4D04464FF4EC
:1009B0007A712878B1FBF0F00A490968B1FBF0F0D0
:1009C00000F076FC48B9102C07D200222146501EB8
:1009D00000F036F800206C6070BD012070BD000092
:1009E000F4020020000300200C4808B5816941F0A2
:1009F00001018161816901F001010091C16941F04A
:100A00008051C161C06900F0805000900448416885
:100A100021F0E06141F08061416008BD00100240BA
:100A200000000140002809DB00F01F020121914075
:100A30004009800000F1E020C0F80011704700007C
:100A4000F0B40E4B1B680C46C3F30223C3F1070539
:100A5000042D00D90425191D072901D2002300E027
:100A6000DB1E012606FA05F1491E214099409E40F1
:100A7000761E16403143F0BC01F07EBB0CED00E069
:100A8000064900F0070208684FF6FF03184040EAE5
:100A90000220034A10430860704700000CED00E09C
:100AA0000000FA052DE9F843044600785B4DC007C5
:100AB0004FF0010951D0E8690026C00008D4E86968
:100AC00040F08050E861E869012600F08050009015
:100AD00053480168C90512D40168804641F4807109
:100AE0000160FFF711FF074605E000BFFFF70CFFAD
:100AF000C01B642877D8D8F80000C005F6D5286A4E
:100B000010F440701ED0A18801F44071814219D0C8
:100B1000286A444920F44070C1F8009000220A601D
:100B20002862C0070ED0FFF7EFFE074641F2883873
:100B300005E000BFFFF7E8FEC11B414553D8286A16
:100B40008007F7D5286A616820F44070084328625E
:100B50001EB1E86920F08050E8612078800705D553
:100B60006868A16820F44040084368602078400726
:100B700005D5E86AE16820F400300843E86220788F
:100B8000000705D5E86A216920F480200843E8625F
:100B9000E86A800302D4E86A400333D52868C000BD
:100BA00028D42868400105D5E86AA16900F0F00062
:100BB000884225D1E86AA16920F0F0000843E86284
:100BC000E86A616920F470400843E8621649C1F898
:100BD0007090FFF799FE064608E004E0FFF794FEE8
:100BE000801B642802D90320BDE8F88328688000B0
:100BF000F4D507E0E86A616900F47040884201D0EA
:100C00000120F1E72078C00605D56868E16920F485
:100C10008000084368600020E6E700000010024002
:100C20000070004040044242000042422DE9F0477B
:100C30000F46050061D0434E306800F00700B8420F
:100C400009D2306820F0070038433060306800F087
:100C50000700B84251D128683B4C810712D54007A4
:100C600003D5606840F4E06060602878000703D531
:100C7000606840F4605060606068A96820F0F0002F
:100C8000084360602878C00728D06868012810D021
:100C90002168022810D0890700292EDA616821F026
:100CA000030101436160FFF72FFE804641F288395E
:100CB0000DE021688903EFE78901EDE7FFF724FEE6
:100CC000A0EB0801494502D90320BDE8F087606820
:100CD000696800F00C00B0EB810FEFD1306800F0D4
:100CE0000700B8420BD9306820F007003843306065
:100CF000306800F00700B84201D00120E5E728780D
:100D0000400705D56068E96820F4E060084360604A
:100D10002878000706D56068296920F4605040EA09
:100D2000C100606000F038F86168084AC1F303113F
:100D3000515CC8400649086006480068FFF734FE69
:100D40000020C2E70020024000100240582D000899
:100D500000030020F80200200448054900684968A3
:100D6000044AC1F30221515CC840704700030020CF
:100D700000100240682D00080448054900684968D1
:100D8000044AC1F3C221515CC840704700030020EF
:100D900000100240682D0008F0B523A289B00FCAE8
:100DA00004AC84E80F0024A10FC98DE80F00264988
:100DB0004A68264802F00C03042B2FD0082B2DD1B3
:100DC00004A8C2F38343C45CD00329D5C86A00F0E9
:100DD0000F001DF80020C86AC00316D5C86AC96A8A
:100DE000C0F30310C1F30321401C891CA0FB0223A4
:100DF000A1FB0416154F0025A1FB070C06FB07C637
:100E000001FB0561FFF7C0F903E010486043B0FB48
:100E1000F2F09DF81D10A14200D1400809B0F0BDCC
:100E20000B486043FAE700000000040506070809C4
:100E300000000000000D0000010203040506070881
:100E4000090A0B0C0D0E0F100010024000127A0060
:100E500000093D002DE9F84F040070D02078F14DD5
:100E6000C00749D06868C0F38100012807D06868CE
:100E7000C0F38100022809D16868C00306D528683C
:100E8000800339D5A0680028E7D035E0A068B0F528
:100E9000803F0BD010B1B0F5A02F11D0286820F4FE
:100EA00080302860286820F4802002E0286840F420
:100EB00080302860A06890B1FFF726FD06460AE062
:100EC000286840F480202860F0E700BFFFF71CFD91
:100ED000801B642876D828688003F7D50CE0FFF7DC
:100EE00013FD064605E000BFFFF70EFD801B6428DA
:100EF000F0D828688003F7D42078CB4E80074FF0D5
:100F000001094FF000073AD5686810F00C0F07D0C0
:100F10006868C0F38100022809D16868C00306D45C
:100F20002868800715D56069012808D111E060693B
:100F3000B8B1C6F80090FFF7E7FC804606E042E152
:100F4000FFF7E2FCA0EB08000228C3D8286880075E
:100F5000F6D52868A16920F0F80040EAC1002860B1
:100F60000DE03760FFF7D0FC804605E0FFF7CCFCD2
:100F7000A0EB08000228ADD828688007F6D42078B6
:100F800000072ED5A948E169E9B1C0F80090FFF744
:100F9000BBFC804606E000BFFFF7B6FCA0EB0800F4
:100FA000022897D8686A8007F6D5A1484FF4FA510D
:100FB0000068B0FBF1F0009000BF0098411E009166
:100FC000FAD20EE0B0E00760FFF79EFC804605E035
:100FD000FFF79AFCA0EB0800022889D8686A80070E
:100FE000F6D42078400763D5E8694FF00008C000C8
:100FF00009D4E86940F08050E861E8694FF00108E1
:1010000000F0805000908B480168C90512D4016837
:10101000834641F480710160FFF776FC824605E06B
:10102000FFF772FCA0EB0A0064287DD8DBF8000013
:10103000C005F5D5206901280AD008B1052813D0CC
:10104000286A20F001002862286A20F0040002E0EB
:10105000286A40F001002862206941F2883B98B17B
:10106000FFF752FC82460BE0286A40F00400286239
:10107000EEE700BFFFF748FCA0EB0A01594553D843
:10108000286A8007F6D50CE0FFF73EFC824605E0B3
:10109000FFF73AFCA0EB0A01594545D8286A8007BA
:1010A000F6D4B8F1000F03D0E86920F08050E86171
:1010B000E06AD0B36968C90307D56968C1F38101E3
:1010C000022902D1E96AC9037DD4022808D0E86A5E
:1010D00020F48030E862B766FFF716FC80463BE0FC
:1010E0002868C00005D5E86A616B00F0F00088420E
:1010F00069D1B766FFF708FC804605E0FFF704FCFE
:10110000A0EB0800642874D828680001F6D4E86AC7
:10111000616B20F0F0000843E862E86A216B20F47C
:1011200070600843E86201E063E018E0C6F8689088
:10113000FFF7EAFB804605E0FFF7E6FBA0EB0800BF
:10114000642856D828680001F6D508E0FFF7DCFBD4
:10115000A0EB080064284CD828680001F6D4206A67
:1011600090B36968C1F38101022949D0022837662A
:1011700003D0FFF7C9FB04463EE0FFF7C5FB074677
:1011800005E000BFFFF7C0FBC01B022831D828686C
:101190008001F7D4606AB0F5803F09D1E86A6168E0
:1011A0000843E862E86AE16820F00F000843E8625B
:1011B000D4E909010843696821F47411084368609F
:1011C000C6F8609001E028E029E0FFF79DFB0446A7
:1011D00005E000BFFFF798FB001B022809D828682C
:1011E0008001F7D51BE000BFFFF78EFB001B022834
:1011F00002D90320BDE8F88F28688001F4D40EE0FE
:101200000128F7D06868626A00F48031914204D105
:10121000A16A00F47010884201D00120EAE70020A2
:10122000E8E7000000100240000042428004424211
:1012300000030020007000401C480122C169B1F584
:101240007A7F02DA491CC16100E00271C16821B1F4
:10125000012900D10270491EC160016921B1012933
:1012600000D14270491E0161416921B1012900D1BB
:10127000C270491E4161816921B1012900D182708A
:10128000491E8161016A002902DD016A491E01626D
:10129000816A002903DD816A816A491E8162016FCA
:1012A000002901DD491E016770470000840100200C
:1012B00010B5401EB0F1807F01D3012010BD4FF06A
:1012C000E02460610F21601700F056FF0020A0614C
:1012D00007202061002010BD10B5FFF7ADFF10BD45
:1012E0007047704770B590F83C20012A19D001244E
:1012F00000F83C4F0222427050F83C3C5A689D680E
:1013000022F070060A684968324325F080052943B7
:101310005A6050F83C2C91604470002101700846DE
:1013200070BD022070BD10B5040003D094F83D00DC
:1013300010B107E0012010BD002084F83C002046D9
:1013400000F00CF8022084F83D00211D206800F018
:101350003FFD012084F83D00002010BD08B5006865
:10136000B0F1804F12D10A48C16941F00101C16159
:10137000C069002200F00100009011461C20FFF718
:101380005FFBBDE808401C20FFF74CBB08BD000018
:101390000010024070B5044690F83C00012817D0B8
:1013A000012584F83C50022084F83D0020688268C2
:1013B00022F0770222F47F4282600868502830D001
:1013C0000DDC20284DD005DC98B310283BD148E037
:1013D000022070BD302844D0402834D139E0602844
:1013E00028D0702806D0B0F5805F2CD0B0F5005F13
:1013F00029D10AE0CB68D1E90121206800F026FD5F
:101400002068816841F0770109E0CB68D1E90121CA
:10141000206800F01BFD2068816841F480418160F4
:1014200011E0CA684968206800F022FD5021206858
:1014300007E016E0CA684968206800F02AFD6021CC
:10144000206800F00DFD84F83D50002084F83C0039
:1014500070BDCA684968206800F00AFD4021206814
:10146000EFE7226801461046EBE7704770B5044687
:10147000006801694FF00005C943890715D4C168A8
:10148000C943890711D4E91E016101202077206832
:1014900080698007204602D0FFF7E7FF04E000F0F4
:1014A00098F8204600F096F8257720680169C9432E
:1014B000490717D4C168C943490713D46FF0040121
:1014C0000161022020772068806910F4407F204667
:1014D00002D0FFF7CAFF04E000F07BF8204600F0DE
:1014E00079F8257720680169C943090716D4C168CE
:1014F000C943090712D46FF0080101610420207765
:101500002068C0698007204602D0FFF7AEFF04E0E4
:1015100000F05FF8204600F05DF82577206801694B
:10152000C943C90617D4C168C943C90613D46FF0AB
:1015300010010161082020772068C06910F4407F05
:10154000204602D0FFF791FF04E000F042F8204669
:1015500000F040F8257720680169C943C90708D120
:10156000C168C943C90704D1891E0161204600F042
:1015700033F820680169C943090609D4C168C94321
:10158000090605D46FF0800101612046FFF7A8FE2F
:1015900020680169C943490609D4C168C94349069D
:1015A00005D46FF040010161204600F04DF820683D
:1015B0000169C94389060BD4C168C943890607D4A8
:1015C0006FF0200101612046BDE87040FFF789BE41
:1015D00070BD704770470000F0B40068B0F1804FF4
:1015E0001DD1174917484A68B2F5FA7F07DA521C2D
:1015F0004A60A2F58071F33911D100221BE0104B33
:101600000A680C330024D3F8DC50954210DD53F8FF
:1016100022608C3BDD6FAE4203DD6D1CDD67F0BCEC
:101620007047521CDC670A60F0BC4021FFF760B9CC
:101630000C6001224C60F0BC4021FFF760B9000053
:1016400004020020001001407047704770B5026826
:1016500004461068D168536910F00F0F51D003F0A1
:10166000010501F4907635435DD0C20705D0CA0567
:1016700003D5E26B42F00102E263420705D5DA07C7
:1016800003D0E26B42F00202E263820705D5DA077B
:1016900003D0E26B42F00402E263020705D5DA07E9
:1016A00003D0E26B42F00802E263E26B002A34D01E
:1016B000800604D5880602D5204600F01FFC20686D
:1016C0004069E16BC0F3801001F00801014320463E
:1016D00024D000F005FC2068416949061AD541690B
:1016E00021F040014161606BA0B11B494163606B17
:1016F000FEF764FF002810D0606B416BBDE87040BE
:10170000084783060FD58B060DD52046BDE87040EF
:1017100000F0F4BB2046FFF798FF70BDFFF795FF80
:101720000020E06370BD030606D50B0604D52046F5
:10173000BDE8704000F08ABC4006F3D54806F1D5FC
:10174000D168204621F04001D160202184F8391071
:1017500000F046FA70BD0000D11E000870B504000C
:1017600004D094F83900002510B106E0012070BDC6
:1017700084F83850204600F023F8242084F83900FB
:101780002068C16821F40051C160204600F002FCCD
:101790002068016921F4904101612068416921F0CC
:1017A0002A0141612068C16841F40051C160E563CC
:1017B000202084F8390084F83A00002070BD000031
:1017C000F0B585B0002400940194029403945C4920
:1017D0005A4DD0F800C00E15022203235948AC45DB
:1017E00025D1CD6945F40025CD61CD6905F40025ED
:1017F00004958D6945F010058D618969054601F0F4
:101800001001CDE90331CDE900626946FEF780FFA2
:101810007000CDE90004694628460294FEF778FF7F
:10182000002211463420FFF70BF934202FE0464DFB
:101830000427AC452FD1CD6945F48015CD61CD6924
:1018400005F4801504958D6945F010058D618D694D
:1018500005F0100504958D6945F020058D618969B5
:10186000039301F020010491B902CDE90012694609
:10187000FEF74EFFCDE90074694634480294FEF746
:1018800047FF002211463520FFF7DAF83520FFF731
:10189000C9F805B0F0BD2E482E4D844525D1886984
:1018A00040F480408861886900F480400490886931
:1018B00040F0040088618869694600F004000490E3
:1018C0006815CDE9000203932846FEF721FFCDE914
:1018D0000064694628460294FEF71AFF002211466A
:1018E0002520FFF7ADF82520D1E71B488445D0D14E
:1018F000C86940F40030C861C86900F40030049041
:10190000886940F0040088618869694600F0040035
:10191000CDE90330CDE900722846FEF7F9FE082034
:10192000CDE90004694628460294FEF7F1FE002244
:1019300011462620FFF784F82620A8E7004C004037
:10194000001002400010014000500040001401400F
:1019500000380140000801400044004090F83A304F
:10196000202B22D1F9B1F2B190F83830012B1CD0E4
:1019700081628285C2850021C163222280F83A20DB
:1019800080F838100168CA6842F48072CA60016841
:101990004A6942F001024A610068C16841F02001D1
:1019A000C16000207047012070470220704700008E
:1019B0002DE9F047064600684349DFF810A10025ED
:1019C000434C4FF023084FF00109884221D1802178
:1019D0005046FEF78DFF3F4F07F114017D7060798F
:1019E0003A780A54401CC0B260710D541439012277
:1019F000A1F18000FFF7B2FFC4F80C8038780A2804
:101A000007D16079042803D984F80090E56000E0EC
:101A1000657131493068884221D180215046FEF7F6
:101A200067FF2E4F07F114017D70E0793A780A5470
:101A3000401CC0B2E0710D5414390122A1F52E7082
:101A4000FFF78CFFC4F8148038780A2807D1E079B2
:101A5000042803D984F80390656100E0E57120490A
:101A600030683227884212D11A48DC3000F1140164
:101A700045700278A0790A54401CC0B2A0710D5480
:101A800014390122A1F5CE70FFF768FFA76115494F
:101A90003068884216D180215046FEF729FF0F4852
:101AA000DC3000F1140145700278207A0A54401CA1
:101AB000C0B220720D5414390122A1F53570FFF720
:101AC0004DFF2761BDE8F08700380140001001405C
:101AD0008401002074040020004C00402C060020EB
:101AE00000500040004400402DE9F843044690F8BF
:101AF00039001F4616460D46202850D1A5B19EB18B
:101B000094F8380001284AD0012084F838004FF0BA
:101B10000008C4F83C80212084F83900FEF7F4FE68
:101B2000A6848146E68426E00120BDE8F883E08CA7
:101B3000401EE084A0684B46B0F5805F4FF0000285
:101B40004FF080012046009703D000F0B0FAE8B9CA
:101B50000DE000F0ACFAC8B928882168C0F308008D
:101B60004860206908B16D1C05E0AD1C03E02168E8
:101B700015F8010B4860E08C0028D8D14B460022B4
:101B800040212046009700F092FA08B10320CCE7EC
:101B9000202084F8390084F838800020C5E702202E
:101BA000C3E790F83930202B18D1A9B1A2B190F831
:101BB0003830012B12D001628284C2840021C163BB
:101BC000212280F8392080F838100068C16841F07F
:101BD0008001C160002070470120704702207047DB
:101BE0007047FEE73EB500240D480094019402942E
:101BF0000A498460016004730475012505614FF48E
:101C000060214460C161FEF71FFC0620CDE900059C
:101C1000694602940248FEF799FB3EBD002401404C
:101C20000403002070B586B0002418480094019485
:101C300002940394816941F020018161816901F07E
:101C400020010491816941F004018161816901F001
:101C500004010491816941F01001816180690C4E99
:101C600000F010004FF430750490002229463046F1
:101C7000FEF745FE01200095CDE901040220039006
:101C800069463046FEF744FD06B070BD00100240C4
:101C90000010014010B586B0002411480094019452
:101CA0000294039404944FF0804105940160012153
:101CB000C0E901146421C0E9031480218161FFF7A8
:101CC00032FB4FF48050009069460548FFF762FBF5
:101CD000049404A902480594FFF704FB06B010BD64
:101CE00034030020FEE770477047704710B5FEF7D9
:101CF00041FEBDE81040FFF7EFBA000070B59CB0A0
:101D000038216846FEF788FA14210EA8FEF784FAF7
:101D1000202113A8FEF780FA092000900125002455
:101D20004FF480300795CDE902040226CDE9086022
:101D3000059501944FF4E010CDE90A046846FFF7D9
:101D400089F80F20CDE90E06A802CDE91040022146
:101D50000EA81294FEF76AFFE8031590139613A8D5
:101D6000FEF7A0FE014805671CB070BD00004242AE
:101D70001048016841F00101016041680E4A1140BC
:101D8000416001680D4A11400160016821F4802121
:101D90000160416821F4FE014160016821F0A05119
:101DA00001604FF47F0181600021C1620449C003DA
:101DB00008607047001002400000FFF0FFFFF6FED1
:101DC00008ED00E00148FFF751BB0000340300209C
:101DD000F0B50268194B1A4C1A4D1B4E4FF0804754
:101DE000984207D0B84205D0A04203D0A84201D003
:101DF000B04204D122F0700C4A6842EA0C029842C8
:101E000007D0B84205D0A04203D0A84201D0B042CA
:101E100003D122F44074CA6822434C6922F0800244
:101E2000224302608A68C2620A688262984201D1D3
:101E30000969016301214161F0BD0000002C0140EE
:101E40000004004000080040000C004010B5846809
:101E500042EA032224F47F440A432243826010BDF5
:101E6000826822F070020A4342F0070181607047E5
:101E700010B5036A046A24F001040462846924F042
:101E8000F00444EA021423F00A020A438461026265
:101E900010BD10B5036A23F0100303628369046A5E
:101EA00023F4704343EA023224F0A00343EA011111
:101EB0008261016210BD00000148FFF7C7BB00004E
:101EC000740300200148FFF7C1BB0000B4030020E9
:101ED00010B5406A0021C185C184FFF7B6FB10BD73
:101EE0000168CA6822F49072CA6001684A6922F0E7
:101EF00001024A61202180F83A10704710B590F82D
:101F00003A10222901D0022010BD8168B1F5805F0E
:101F100011D00169002901681FD0496801F07F03D1
:101F2000816A4A1C82620B70C18D491E0904090C2A
:101F3000C18518D02BE00269816A002A02685268C4
:101F400005D0D2B20A80816A491C8162ECE7C2F3F3
:101F500008020A80816A891CF7E74A68816A4B1C7B
:101F600083620A70E0E70168CA6822F02002CA6052
:101F70000168CA6822F48072CA6001684A6922F066
:101F800001024A61202180F83A10FFF711FD00207C
:101F900010BD00002DE9F041044600680169E268C7
:101FA00021F44051114301612169A068084361692E
:101FB00008432168CA6841F20C639A430243CA602D
:101FC00020684169A26921F44071114341611E49B1
:101FD000206864253226884202D1FEF7CDFE01E05A
:101FE000FEF7BAFE00EBC00101EB001160686FF074
:101FF00018078000B1FBF0F2B2FBF5F2B1FBF0F391
:102000007A4303EB8202B1FBF0F306EB0212B2FB60
:10201000F5F2B3FBF5F302F0F00202EB0312B1FBB1
:10202000F0F3B1FBF0F0B0FBF5F0784303EB800088
:1020300006EB0010B0FBF5F0216800F00F00104433
:102040008860BDE8F08100000038014090F8391048
:10205000212901D0022070478168B1F5805F016AB3
:102060000BD04A1C0262026809785160C18C491E7B
:102070000904090CC1840ED017E009880268C1F375
:102080000801516001690029016A02D0491C0162FE
:10209000ECE7891CFBE70168CA6822F08002CA608D
:1020A0000068C16841F04001C160002070472DE91F
:1020B000F041984617460E460446069D1DE0681CF2
:1020C0001BD02DB1FEF720FCA0EB0800A84214D9CC
:1020D0002068C16821F4D071C1602068416921F095
:1020E00001014161202084F8390084F83A00002081
:1020F00084F838000320BDE8F0812068006836EAE3
:10210000000004D00020B842D9D00020F3E701201D
:10211000F9E700000148FFF799BA0000F403002036
:102120000148FFF793BA000034040020FEE70000E6
:102130000FB4054B10B503A9044A029800F03CF80F
:1021400010BC5DF814FB000025260008F0020020FA
:102150000FB4084B10B504A902AA039800F02CF89C
:10216000044602A9002000F058FA204610BC5DF891
:1021700014FB00001B2600080907090E002804DBD9
:1021800000F1E02080F80014704700F00F0000F12B
:10219000E02080F8141D704702E008C8121F08C133
:1021A000002AFAD170477047002001E001C1121FD8
:1021B000002AFBD1704700002DE9FF4F8DB00F467C
:1021C0000546002606E025280BD0DDE90F129047D2
:1021D0006D1C761C28780028F5D111B03046BDE87A
:1021E000F08F0024A246A1460122EC4900E00443FE
:1021F00015F8013F203B02FA03F00842F7D1287896
:102200002A2810D06FF02F022878A0F13001092978
:1022100014D80AEB8A0102EB410144F0020400EBFE
:10222000010A6D1CF0E701CF5FEA000A03D544F410
:102230000054CAF1000A44F002046D1C28782E28CC
:1022400017D115F8010F44F004042A280ED06FF0BE
:102250002F022878A0F1300109290AD809EB890159
:1022600002EB410100EB01096D1CF2E757F8049BFA
:102270006D1C28786C280FD006DC4C2817D06828F5
:102280000DD06A2814D104E0742810D07A280FD118
:102290000DE044F400140AE044F4801401E044F436
:1022A00040146978814202D104F580146D1C6D1CC4
:1022B0002A786E2A1FD00CDC632A31D004DC002A75
:1022C0008BD0582A11D1A3E0642A68D0692A0CD196
:1022D00065E0732A2ED004DC6F2A73D0702A04D1F3
:1022E0009BE0752A6FD0782A6ED01046DDE90F1278
:1022F0009047761C50E1C4F30250022806D0032810
:1023000009D0042801CF09D0066045E101CFF117BB
:10231000C0E9006140E101CF06803DE106703BE18C
:1023200017F8040B8DF8000000208DF80100EB4633
:10233000012003E057F804BB4FF0FF3061074FF076
:10234000000102D40DE008F10101884649450FDA89
:102350008045F8DB1BF808100029F4D108E008F1EB
:10236000010188468142FADB1BF808100029F6D1EA
:10237000DDE90F23AAEB08008146214600F036F97B
:10238000304400EB080604E0DDE90F121BF8010BF6
:102390009047B8F10108F7D221464846F7E00A21F4
:1023A000C4F302534FF0000B0891022B04D001CF6D
:1023B000C117032B09D00AE0FF1D27F00707F7E834
:1023C000020108E032E01FE020E000B2C117042B58
:1023D00001D140B2C117031E71F1000307DA4FF0BB
:1023E000000CD0EB0C006CEB01012D2302E0230567
:1023F00004D52B238DF82430012303E0E30701D01B
:102400002023F7E7984658E00A2110E010210EE05B
:1024100010204FF0000B08900CE010214FF0000B43
:1024200044F004044FF00809089103E008214FF03C
:10243000000B0891C4F30253022B04D001CF0021FA
:10244000032B06D006E0FF1D27F00707F7E802017F
:1024500003E080B2042B00D1C0B24FF00008230784
:102460002BD5702A07D0DDF820C08CF0100C5CEA68
:102470000B0C05D00EE040238DF82430012308E03A
:1024800050EA010306D030238DF824308DF8252042
:1024900002239846DDF820C08CF0080C5CEA0B0C97
:1024A0000BD150EA010301D1630706D530238DF823
:1024B00024304FF00108A9F10109582A04D038A2AC
:1024C0000B9208AA0A920BE03AA2F9E75B46089A37
:1024D000FDF75AFE0B9B9B5C0A9A521E0A921370E0
:1024E00050EA0102F2D10A98ADEB000000F1200B96
:1024F000600702D524F4803401E04FF00109D9458A
:1025000002DDA9EB0B0000E0002000EB0B014144D1
:102510000890AAEB010AE00306D4DDE90F23214667
:10252000504600F063F806444FF0000908E009A99E
:1025300011F80900DDE90F12904709F10109761C35
:10254000C145F4DBE0030CD5DDE90F2321465046FD
:1025500000F04CF8064404E0DDE90F12302090470B
:10256000761C0899481E08900029F5DC08E00A98B6
:102570000A990078491C0A91DDE90F129047761CF0
:10258000BBF10001ABF1010BF1DC21465046DDE966
:102590000F2300F019F806446D1C1BE60928010002
:1025A00030313233343536373839616263646566C9
:1025B000000000003031323334353637383941428B
:1025C00043444546000000002DE9F0410446002543
:1025D0001E461746880404D405E039462020B0473B
:1025E0006D1C641EF9D52846BDE8F0812DE9F04147
:1025F000044600251E469046C80301D5302700E05A
:102600002027880404D505E041463846B0476D1CB4
:10261000641EF9D52846BDE8F0810A68531C0B609A
:102620001070704713B5054840F6FF7301226946E4
:102630008068FFF759FA00981CBD000004020020D2
:1026400090B00225FEF79EF9F748F6490160052192
:10265000416040F6AA218160FEF75CF9FFF74EFB6E
:10266000FFF7E0FAFFF7BEFADFF8C4A3EF485746DA
:10267000CAF800004FF416560024C7E901644FF071
:102680000C08CAF80C40C7E90448CAF8184050467C
:10269000CAF81C40FFF762F8AAF18009E5494846EC
:1026A000C9F80010C0E90164C9F80C40C0E9044849
:1026B000C9F81840C9F81C40FFF750F809F140006C
:1026C000DD490160C0E90164C460C0E90448846177
:1026D000C461FFF743F8FFF7DDFA09F1C000D749FD
:1026E0000160C0E90164C460C0E904488461C46158
:1026F000FFF734F8DFF848B3AE0200940194029477
:102700000022314658460394FEF7F9F8012000965E
:10271000CDE901040220039069465846FDF7F8FF11
:10272000C84EC9A0B760FFF703FD012209F580710B
:102730005046FFF713F909F565710122A1F53570CF
:10274000FFF70CF909F5EE710122A1F5CE70FFF744
:1027500005F9012209F52E714846FFF7FFF8A6F1A9
:10276000800044F62068C0F8288001224021BC483F
:10277000FEF7C5F8A6F180042079012805D10020D4
:10278000E0612071A848FEF7EEF8206FA8B9012299
:10279000D1025F465846FEF7B2F84FF47A70FDF763
:1027A000A5FF00224FF400613846FEF7A8F8AD48B7
:1027B000C4F8288020670020E062012D02D0022D9D
:1027C0007DD0F3E1A06A0028FBD1607A0128E06A9D
:1027D0000BD0002874D0A07A012872D0012060723A
:1027E0000920E0624046A062E0E10F28E06A69DA71
:1027F000401CE062E06A00EB40019B4850F8210079
:102800009AA1FDF714FD002871D1E06A964F00EB04
:10281000400057F82000FDF71CFD002867D0E06A53
:1028200092A100EB400007EB80004068FDF7FFFC41
:1028300000284CD004F154000DF12C0C0FC88CE88A
:102840000F0004F144000DF11C0C0FC88CE80F00C0
:10285000D4E91A230DF10C0C206C616E8CE80F008A
:1028600004F1340007C88DE8070081A28649874833
:10287000236BFFF76DFC8548FDF7EBFC83491A22BB
:10288000451C0A5400204855574681A0C6F808A0A8
:10289000FFF74EFC40F2DC50FDF728FF71487B4902
:1028A0002067AAB240F6FF73A1F5C060FFF71CF9DC
:1028B00040F2DC50FDF71AFF77A0B76003E031E08B
:1028C00026E02AE020E0FFF733FC022509E0C6F805
:1028D0000890E06A00EB400057F8201074A0FFF762
:1028E00027FCC820FDF702FFC820FDF7FFFE0020EF
:1028F0006072E06A00EB40015B4800EB81004FF43E
:102900007A71806848436EE7092805DD092002E0F6
:1029100001206072801EE06248E10020A072012068
:10292000607243E1206A70BB624FA06F082207EB20
:1029300000113F4808314030FFF733F9C820FDF758
:10294000D5FEC6F808A0A16F07EB011090F80FC0E4
:10295000877B437B027BCDE9047CCDE90223C37AEC
:10296000827ACDE90023437A027A53A0FFF7E0FB95
:102970004FF448702062606A401C6062A06F0C28AF
:1029800002DA401CA06703E0002060620125A06716
:10299000607801283DD1002767704648A16F00EBA1
:1029A00001100068012816D002281AD004281ED071
:1029B000052822D0062826D00A282BD00B282AD07A
:1029C0000C2829D0072828D0082827D0092826D065
:1029D0000D2825D0DDE04448B0F8030040BA60641B
:1029E000D7E04148B0F8030040BAA064D1E03E48C7
:1029F000B0F8030040BAE064CBE03B48B0F8030015
:102A000040BA2065C5E03848B0F8030040BA6065B8
:102A1000BFE0CBE06AE06FE074E079E082E08BE059
:102A200094E0000000300040680B002000380140B6
:102A3000F4030020004C00400050004000440040DF
:102A400000080140040200205374617274696E67CB
:102A500020436F6465202E2E2E200D0A00000000FA
:102A60000010014080A90300000000205E5A000011
:102A7000474554202F676174657761792F70696EBF
:102A80006C6F672E706870007C2E0008740900203F
:102A90002D2D3E3E2025730053454E44494E472080
:102AA00044415441202B204354524C2B5A0D0A00D0
:102AB00025730000B40000202564203A3A20253018
:102AC00032582025303258202530325820253032D7
:102AD00058202530325820253032582025303258A1
:102AE00020253032580D0A001C0700207D48B0F820
:102AF000030040BA60664CE07A48B0F8030040BA80
:102B0000A06646E07748B0F8030040BAE06640E0CF
:102B10007448D0F80310807909BA21F0FF0101430D
:102B2000A16536E06F48D0F80310807909BA21F02A
:102B3000FF010143E1652CE06A48D0F80310807979
:102B400009BA21F0FF010143216622E065490DF138
:102B5000080CD1F80300897900BA20F0FF0008437F
:102B600004F16401E0630EC9CDE90830CDE9061235
:102B700004F154000FC88CE80F00D4E91301CDE92B
:102B800000015848D4E911235749C830FFF7E0FA4B
:102B900001256420FDF7AAFDC6F808A053A0A16F87
:102BA000FFF7C6FA3220FDF7A1FD2772E078012871
:102BB00068D10027E770E06A00EB40014D4800EB68
:102BC00081004DA14068FDF732FB10B10120A072D9
:102BD00057E0E06A00EB4001464850F8210048A168
:102BE000FDF725FB68B13F4848A1DC38FDF71FFB26
:102BF00038B1012060724FF4FA60A0624FF0FF30EC
:102C000015E0E06A00EB40013A4850F821003CA191
:102C1000FDF70DFB68B133483EA1DC38FDF707FB3B
:102C200038B1012060724FF4FA60A0620920E062BE
:102C300027E02C483AA1DC38FDF7F9FA28B1677291
:102C4000C4F82880E76227671BE0E06A00EB4001D8
:102C5000284800EB810041682248DC38FDF7E7FA9C
:102C600040B101206072A16A4FF47A70814208DDA0
:102C7000A06206E01B492DA0DC39C6F808A0FFF7CA
:102C800057FAE771A07801281CD10027A770A07916
:102C90000D2808D92948818949BA6163418949BA0F
:102CA000A163407A2063606F401C6067102808DDD4
:102CB0006767C6F808A0D4E90D1221A0236BFFF7BF
:102CC00037FAA771207801287FF456AD00272770C6
:102CD0001A49DC39AFF22820C6F80890FFF728FA25
:102CE000677149E51C070020202F00082564207C1F
:102CF000200D0A00000000205F5F45474F000000E4
:102D00004349505354415455530000004552524FCB
:102D10005200000054435020434C4F5345000000E4
:102D200050445020444541435400000052455455FE
:102D3000524E203A3A2025730D0A00006405002007
:102D4000494E3A3A2564204F55543A3A2564204B6F
:102D500057683A3A256400000000000000000000B7
:102D60000102030406070809000000000102030431
:102D700041542B435354543D226770696E746572FD
:102D80006E6574222C22222C22220D0A00000000E3
:102D900041542B43495053544152543D22544350C3
:102DA000222C223130332E3131302E3131332E3539
:102DB00034222C2238303930220D0A00415445305B
:102DC0000D0A000041542B43494943520D0A0000AB
:102DD00041542B43494653520D0A000041542B43A2
:102DE00049505354415455530D0A000041540D0AA3
:102DF00000000000474554202F67617465776179B2
:102E00002F70696E6C6F672E7068700D0A0000007D
:102E100041542B43495053454E440D003E000000A1
:102E2000434C4F534544000053454E44204F4B0004
:102E3000434F4E4E454354204F4B000049502049CC
:102E40004E495449414C00005F5F45474F00000028
:102E500049502053544154555300000049502047D5
:102E6000505253414354000049502053544152544E
:102E7000000000005E5A00000000000025733F645F
:102E8000636B77686F75743D2564266463696E6F44
:102E9000623D25642664636F75746F623D25642608
:102EA00061636B776873756E3D256426696E706F1C
:102EB0007765723D256426616C61726D313D2564D4
:102EC00026616C61726D323D256426616C61726DA4
:102ED000333D256426707631766F6C743D2564260B
:102EE000707632766F6C743D25642661766F6C74F3
:102EF0003D25642662766F6C743D25642663766F8B
:102F00006C743D256426616375723D256426626399
:102F100075723D256426636375723D25640D0A0054
:102F20005056312D2564205056322D25642041768F
:102F30006F6C742D25642042766F6C742D2564208F
:102F400043766F6C742D256420416375722D256462
:102F500020426375722D256420436375722D2564AC
:102F600020416C726D312D256420416C726D322DC3
:102F7000256420416C726D332D2564204163746992
:102F80007665706F7765722D25640000AC2F0008A0
:102F90000000002004030000A4020008BC30000868
:102FA00004030020740C0000A821000813EC2D1469
:102FB00008382E3308059ABC0CA9181ADC0C5A3CA8
:102FC0000CDA70185A680CDAC4185A5C0C1AD00C57
:102FD0009A48185A500C1A900C5A300C1A10085A69
:102FE0001C0C1AF4181A740C321429085A280C1ADA
:102FF00078085A200C6A010414037D1035019DA342
:103000000229041910121235013C63032904191016
:1030100012403502DDB3042904191012452C018D2C
:10302000B36829041910124635017DB30629041925
:1030300010124735012C7307290419101248350264
:103040005C710829041910124A3502FDB1092904DE
:103050001910124C35021DB00A2904191012083536
:10306000011DA40B29041910120935014C640C2907
:10307000041910120A3501BC640D290419101250EC
:10308000042002DC762AB84DB1296C321632212A8E
:103090002C48311A4A05290432DC29045AE6185A08
:1030A0000208C1041980A9035A05045A146801CC06
:0C30B0007204320182101324F4000000AE
:04000005080001519D
:00000001FF
