:020000040800F2
:10000000000500206501000887150008D1140008CC
:1000100085150008BD020008B118000800000000A6
:100020000000000000000000000000008B15000828
:10003000BF02000800000000891500088D150008A7
:100040007F0100087F0100087F0100087F01000890
:100050007F0100087F0100087F0100087F01000880
:100060007F0100087F0100087F0100087F01000870
:100070007F0100087F0100087F0100087F01000860
:100080007F0100087F0100087F0100087F01000850
:100090007F0100087F0100087F0100087F01000840
:1000A0007F0100087F0100087F0100087F01000830
:1000B0007F0100087F0100087F0100087F01000820
:1000C0007F0100087F0100087F0100087F01000810
:1000D0007F010008A51800087F0100087F010008C3
:1000E0007F0100087F0100087F0100080000000078
:1000F0000000000000000000000000000000000000
:1001000000000000000000007F0100087F010008DF
:100110007F0100087F0100087F0100087F010008BF
:100120007F0100087F0100087F0100087F010008AF
:100130007F0100087F0100087F0100087F0100089F
:100140007F0100087F0100087F0100087F0100088F
:10015000DFF80CD000F07AF800480047011A0008D8
:10016000000500200648804706480047FEE7FEE7F6
:10017000FEE7FEE7FEE7FEE7FEE7FEE7FEE7FEE757
:100180000D160008510100082DE9F05F054600201A
:1001900092469B4688460646814640241BE02846F8
:1001A00041464746224600F020F853465A46C01AB8
:1001B000914110D311461846224600F038F82D1A06
:1001C00067EB01084F4622460120002100F02FF87E
:1001D00017EB00094E41201EA4F10104DFDC484664
:1001E00031462A464346BDE8F09F202A04DB203AE8
:1001F00021FA02F00021704721FA02F3D040C2F147
:1002000020029140084319467047D2B201E000F83D
:10021000012B491EFBD270470022F6E710B51346AA
:100220000A4604461946FFF7F0FF204610BD202A73
:1002300004DB203A00FA02F1002070479140C2F13D
:10024000200320FA03F3194390407047064C074DF2
:1002500006E0E06840F0010394E807009847103496
:10026000AC42F6D3FFF778FFAC1A0008CC1A0008AE
:1002700070B5044600688168C943C9071CD181680C
:1002800021F00101816000F0E7FA05460FE000BFB0
:1002900000F0E2FA401B022809D9A06A40F01000E1
:1002A000A062E06A40F00100E062012070BD2068B9
:1002B0008068C043C007EBD0002070BDFEE77047E8
:1002C000F8B50024009490F824202546012A12D085
:1002D000012280F824204A681F23072A0DD20668CD
:1002E000776B521E02EB820293409F430B68934050
:1002F0001F43776319E00220F8BD06680D2A0AD271
:10030000376BD21F02EB820293409F430B689340EE
:100310001F43376309E0F76A0D3A02EB820293400C
:100320009F430B6893401F43F7620A6807230668E0
:100330000A2A0AD3F7680A3A02EB420293409F4323
:100340008B6893401F43F76008E0376902EB420275
:1003500093409F438B6893401F4337610A68102A7C
:1003600001D0112A20D1124B02689A4217D193680A
:100370001B0219D4936843F40003936009681029A1
:1003800012D10C490C4A0968B1FBF2F101EB810171
:10039000490000E0491E00910029FBD104E0816A78
:1003A00041F020018162012480F824502046F8BDEC
:1003B000002401401800002040420F002DE9F041C8
:1003C0004FF0000704003D467ED0A06A002628B901
:1003D000E66284F82460204600F07EF82046FFF7AD
:1003E00047FFA16A01F01001014304D0A06A40F068
:1003F0001000A06268E0A16A21F4885141F0020176
:10040000A1626268E169237B0A4347EA43010A4328
:10041000A1684FF48077B94208D0012906D00021A5
:1004200094F814C0BCF1010F02D00AE03946F7E796
:10043000F3B1A36A43F02003A362E36A43F001032C
:10044000E3622368D3F804C02CF4694C4CEA010C35
:10045000C3F804C023689968DFF870C001EA0C0192
:1004600011439960A168B9420BD0012909D00CE071
:10047000DFF85CC0A3690CEB43330B4343F400612A
:10048000DFE7218A0D05A5F580152168CB6A23F4E5
:1004900070032B43CB62216889680E4B194091424F
:1004A00008D1E662A16A21F0020141F00101A162D6
:1004B000BDE8F081A06A20F0020040F01000A062C8
:1004C000E06A40F00100E0620120F1E7FDF7E1FFA2
:1004D00000E0FFFFFE0E1FFF00B585B00021009178
:1004E00001910291039100680E49884217D10E488C
:1004F000816941F400718161816901F400710491A5
:10050000816941F0040181618069694600F004005D
:100510000490032000900190044800F0A1F805B079
:1005200000BD00000024014000100240000801400E
:100530002DE9F05F90F821100024022903D0042156
:100540008163012485E001680A6822F00E020A60D6
:1005500001680A6822F001020A603F4E3E4FB21560
:10056000DFF8F4C0DFF8F090DFF8ECA0DFF8E8B0D7
:10057000DFF8E4E00168783F13011502ACF1640C88
:10058000A9F15009AAF13C0AABF1280BAEF1140E07
:100590004FF48018B14227D9B9420ED0614512D02C
:1005A00049451DD0514518D0594518D0714501D144
:1005B000424615E0294EB14201D1012210E0274EFA
:1005C0001436B14201D110220AE0244E2836B1423D
:1005D00006D0224A3C32914201D11A4600E02A4616
:1005E0001E49091F0A602BE0B94213D0614517D09C
:1005F000494522D051451DD059451DD0714501D1E5
:1006000042461AE0B14202D14FF0807215E0134E1B
:10061000B14201D1012210E0104E1436B14201D195
:1006200010220AE00D4E2836B14206D00B4A3C3269
:10063000914201D11A4600E02A46074980394A60B2
:10064000012180F82110002180F82010416B01B1B8
:1006500088472046BDE8F09F800002400804024021
:100660002DE9F84FDFF8B891002409F1040A0AF1E6
:10067000040B23460F270BF1040EC9E00125A5400A
:100680002A40AA427DD1674ED1F804C0ACEB0608DF
:10069000B44532D014DCBCF1030F3AD009DCBCF114
:1006A000000F2AD0BCF1010F1CD0BCF1020F31D1D8
:1006B0001DE0BCF1110F17D0BCF1120F2AD119E0C7
:1006C000B8F5881F19D006DCB8F5803F15D0B8F50D
:1006D000801F1FD111E0B8F5001F0ED0B8F5041F20
:1006E00018D10AE0CB6815E0CB681B1D12E0CB687F
:1006F00008330FE0CB680C330CE08B682BB1012B77
:100700004FF0080303D0456104E0042302E00561D3
:1007100000E00023FF2A01D8064601E000F10406AC
:100720004FEA840501D9A5F12005D6F8008007FA23
:1007300005FC28EA0C0803FA05F548EA0508C6F89E
:1007400000804D68ED0062D5374DAE6946F0010678
:10075000AE61AD6924F0030605F001050095334D47
:1007600006EB050CDCF80850A607360F07FA06F86A
:1007700025EA0805DFF8B880404503D14FF00008AE
:1007800017E044E0DFF8AC80404502D14FF00108AB
:100790000FE0DFF8A480404502D14FF0020808E0E6
:1007A000DFF89880404502D14FF0030801E04FF098
:1007B000040808FA06F848EA0508CCF808804D68ED
:1007C000D9F80060ED034D4601D5164300E096438D
:1007D0002E604D68DAF80060AD03554601D516432A
:1007E00000E096432E604D68DBF80060ED025D4648
:1007F00001D5164300E096432E604D68DEF8006098
:10080000AD02754601D5164300E096432E60641C88
:100810000D682A46E5407FF431AFBDE8F88F00004F
:1008200000040140000011100010024000000140CF
:1008300000080140000C014000100140001401407C
:10084000C2680A4201D041617047016170470AB134
:10085000016170470904FBE70148806870470000A8
:100860000C000020024881680278114481607047C2
:100870000C000020074810B5016841F0100101602C
:10088000032000F075F8002000F006F800F024F8CE
:10089000002010BD0020024070B50D4D04464FF4FD
:1008A0007A712878B1FBF0F00A490968B1FBF0F0E1
:1008B00000F048FC48B9102C07D200222146501EF7
:1008C00000F036F800206C6070BD012070BD0000A3
:1008D0000C000020180000200C4808B5816941F088
:1008E00001018161816901F001010091C16941F05B
:1008F0008051C161C06900F0805000900448416897
:1009000021F0E06141F08061416008BD00100240CB
:1009100000000140002809DB00F01F020121914086
:100920004009800000F1E020C0F80011704700008D
:10093000F0B40E4B1B680C46C3F30223C3F107054A
:10094000042D00D90425191D072901D2002300E038
:10095000DB1E012606FA05F1491E214099409E4002
:10096000761E16403143F0BC00F0B4BF0CED00E041
:10097000064900F0070208684FF6FF03184040EAF6
:100980000220034A10430860704700000CED00E0AD
:100990000000FA052DE9F843044600785B4DC007D6
:1009A0004FF0010951D0E8690026C00008D4E86979
:1009B00040F08050E861E869012600F08050009026
:1009C00053480168C90512D40168804641F480711A
:1009D0000160FFF741FF074605E000BFFFF73CFF5E
:1009E000C01B642877D8D8F80000C005F6D5286A5F
:1009F00010F440701ED0A18801F44071814219D0DA
:100A0000286A444920F44070C1F8009000220A602E
:100A10002862C0070ED0FFF71FFF074641F2883853
:100A200005E000BFFFF718FFC11B414553D8286AF6
:100A30008007F7D5286A616820F44070084328626F
:100A40001EB1E86920F08050E8612078800705D564
:100A50006868A16820F44040084368602078400737
:100A600005D5E86AE16820F400300843E8622078A0
:100A7000000705D5E86A216920F480200843E86270
:100A8000E86A800302D4E86A400333D52868C000CE
:100A900028D42868400105D5E86AA16900F0F00073
:100AA000884225D1E86AA16920F0F0000843E86295
:100AB000E86A616920F470400843E8621649C1F8A9
:100AC0007090FFF7C9FE064608E004E0FFF7C4FE99
:100AD000801B642802D90320BDE8F88328688000C1
:100AE000F4D507E0E86A616900F47040884201D0FB
:100AF0000120F1E72078C00605D56868E16920F497
:100B00008000084368600020E6E700000010024013
:100B10000070004040044242000042422DE9F0478C
:100B20000F46050061D0434E306800F00700B84220
:100B300009D2306820F0070038433060306800F098
:100B40000700B84251D128683B4C810712D54007B5
:100B500003D5606840F4E06060602878000703D542
:100B6000606840F4605060606068A96820F0F00040
:100B7000084360602878C00728D06868012810D032
:100B80002168022810D0890700292EDA616821F037
:100B9000030101436160FFF75FFE804641F288393F
:100BA0000DE021688903EFE78901EDE7FFF754FEC7
:100BB000A0EB0801494502D90320BDE8F087606831
:100BC000696800F00C00B0EB810FEFD1306800F0E5
:100BD0000700B8420BD9306820F007003843306076
:100BE000306800F00700B84201D00120E5E728781E
:100BF000400705D56068E96820F4E060084360605C
:100C00002878000706D56068296920F4605040EA1A
:100C1000C100606000F038F86168084AC1F3031150
:100C2000515CC8400649086006480068FFF734FE7A
:100C30000020C2E70020024000100240941A000881
:100C40001800002010000020044805490068496889
:100C5000044AC1F30221515CC840704718000020CB
:100C600000100240A41A00080448054900684968B9
:100C7000044AC1F3C221515CC840704718000020EB
:100C800000100240A41A0008F0B523A289B00FCAD0
:100C900004AC84E80F0024A10FC98DE80F00264999
:100CA0004A68264802F00C03042B2FD0082B2DD1C4
:100CB00004A8C2F38343C45CD00329D5C86A00F0FA
:100CC0000F001DF80020C86AC00316D5C86AC96A9B
:100CD000C0F30310C1F30321401C891CA0FB0223B5
:100CE000A1FB0416154F0025A1FB070C06FB07C648
:100CF00001FB0561FFF748FA03E010486043B0FBD1
:100D0000F2F09DF81D10A14200D1400809B0F0BDDD
:100D10000B486043FAE700000000040506070809D5
:100D200000000000000D0000010203040506070892
:100D3000090A0B0C0D0E0F100010024000127A0071
:100D400000093D002DE9F84F040070D02078F14DE6
:100D5000C00749D06868C0F38100012807D06868DF
:100D6000C0F38100022809D16868C00306D528684D
:100D7000800339D5A0680028E7D035E0A068B0F539
:100D8000803F0BD010B1B0F5A02F11D0286820F40F
:100D900080302860286820F4802002E0286840F431
:100DA00080302860A06890B1FFF756FD06460AE043
:100DB000286840F480202860F0E700BFFFF74CFD72
:100DC000801B642876D828688003F7D50CE0FFF7ED
:100DD00043FD064605E000BFFFF73EFD801B64288B
:100DE000F0D828688003F7D42078CB4E80074FF0E6
:100DF00001094FF000073AD5686810F00C0F07D0D2
:100E00006868C0F38100022809D16868C00306D46D
:100E10002868800715D56069012808D111E060694C
:100E2000B8B1C6F80090FFF717FD804606E042E132
:100E3000FFF712FDA0EB08000228C3D8286880073E
:100E4000F6D52868A16920F0F80040EAC1002860C2
:100E50000DE03760FFF700FD804605E0FFF7FCFC82
:100E6000A0EB08000228ADD828688007F6D42078C7
:100E700000072ED5A948E169E9B1C0F80090FFF755
:100E8000EBFC804606E000BFFFF7E6FCA0EB0800A5
:100E9000022897D8686A8007F6D5A1484FF4FA511E
:100EA0000068B0FBF1F0009000BF0098411E009177
:100EB000FAD20EE0B0E00760FFF7CEFC804605E016
:100EC000FFF7CAFCA0EB0800022889D8686A8007EF
:100ED000F6D42078400763D5E8694FF00008C000D9
:100EE00009D4E86940F08050E861E8694FF00108F2
:100EF00000F0805000908B480168C90512D4016849
:100F0000834641F480710160FFF7A6FC824605E04C
:100F1000FFF7A2FCA0EB0A0064287DD8DBF80000F4
:100F2000C005F5D5206901280AD008B1052813D0DD
:100F3000286A20F001002862286A20F0040002E0FC
:100F4000286A40F001002862206941F2883B98B18C
:100F5000FFF782FC82460BE0286A40F0040028621A
:100F6000EEE700BFFFF778FCA0EB0A01594553D824
:100F7000286A8007F6D50CE0FFF76EFC824605E094
:100F8000FFF76AFCA0EB0A01594545D8286A80079B
:100F9000F6D4B8F1000F03D0E86920F08050E86182
:100FA000E06AD0B36968C90307D56968C1F38101F4
:100FB000022902D1E96AC9037DD4022808D0E86A6F
:100FC00020F48030E862B766FFF746FC80463BE0DD
:100FD0002868C00005D5E86A616B00F0F00088421F
:100FE00069D1B766FFF738FC804605E0FFF734FCAF
:100FF000A0EB0800642874D828680001F6D4E86AD9
:10100000616B20F0F0000843E862E86A216B20F48D
:1010100070600843E86201E063E018E0C6F8689099
:10102000FFF71AFC804605E0FFF716FCA0EB08006E
:10103000642856D828680001F6D508E0FFF70CFCB4
:10104000A0EB080064284CD828680001F6D4206A78
:1010500090B36968C1F38101022949D0022837663B
:1010600003D0FFF7F9FB04463EE0FFF7F5FB074628
:1010700005E000BFFFF7F0FBC01B022831D828684D
:101080008001F7D4606AB0F5803F09D1E86A6168F1
:101090000843E862E86AE16820F00F000843E8626C
:1010A000D4E909010843696821F4741108436860B0
:1010B000C6F8609001E028E029E0FFF7CDFB044688
:1010C00005E000BFFFF7C8FB001B022809D828680D
:1010D0008001F7D51BE000BFFFF7BEFB001B022815
:1010E00002D90320BDE8F88F28688001F4D40EE00F
:1010F0000128F7D06868626A00F48031914204D117
:10110000A16A00F47010884201D00120EAE70020B3
:10111000E8E7000000100240000042428004424222
:10112000180000200070004005494868B0F57A7F3B
:1011300002DA401C48607047012048707047000088
:101140000000002010B5401EB0F1807F01D30120C7
:1011500010BD4FF0E02460610F21601700F0BAFB72
:101160000020A06107202061002010BD10B5FFF70E
:10117000DBFF10BD7047000070B5026804461068C0
:10118000D168536910F00F0F51D003F0010501F43D
:10119000907635435DD0C20705D0CA0503D5E26B12
:1011A00042F00102E263420705D5DA0703D0E26BA1
:1011B00042F00202E263820705D5DA0703D0E26B50
:1011C00042F00402E263020705D5DA0703D0E26BBE
:1011D00042F00802E263E26B002A34D0800604D5B4
:1011E000880602D5204600F051FA20684069E16B7C
:1011F000C0F3801001F008010143204624D000F024
:1012000037FA2068416949061AD5416921F0400141
:101210004161606BA0B11B494163606BFFF788F9C6
:10122000002810D0606B416BBDE870400847830612
:101230000FD58B060DD52046BDE8704000F026BACC
:101240002046FFF797FF70BDFFF794FF0020E06393
:1012500070BD030606D50B0604D52046BDE87040D8
:1012600000F0BCBA4006F3D54806F1D5D168204657
:1012700021F04001D160202184F8391000F027F9D5
:1012800070BD00006116000870B5040004D094F829
:101290003900002510B106E0012070BD84F83850F7
:1012A000204600F023F8242084F839002068C16823
:1012B00021F40051C160204600F034FA2068016931
:1012C00021F4904101612068416921F02A014161C6
:1012D0002068C16841F40051C160E563202084F8B2
:1012E000390084F83A00002070BD000030B585B0A8
:1012F00000240094019402940394006818498842E1
:101300002CD11848816941F480418161816901F4DF
:1013100080410491816941F0040181618069124D2D
:1013200000F0040004904FF400700090022001903F
:101330000320039069462846FFF792F92815CDE966
:101340000004694628460294FFF78AF900221146F4
:101350002520FFF7EDFA2520FFF7DCFA05B030BDB8
:1013600000380140001002400008014090F83A3077
:10137000202B22D1F9B1F2B190F83830012B1CD0DA
:1013800081628285C2850021C163222280F83A20D1
:1013900080F838100168CA6842F48072CA60016837
:1013A0004A6942F001024A610068C16841F02001C7
:1013B000C160002070470120704702207047000084
:1013C00070B500680F4988421BD180210E48FFF795
:1013D00037FA0E4C0E4D00216170A87804F10A0214
:1013E00023781354401CC0B2A87011542146012226
:1013F000A1F14000FFF7BAFF20780A2801D10120AF
:10140000287070BD00380140001001408C000020A1
:10141000000000202DE9F843044690F839001F46EB
:1014200016460D46202850D1A5B19EB194F838003B
:1014300001284AD0012084F838004FF00008C4F891
:101440003C80212084F83900FFF706FAA684814603
:10145000E68426E00120BDE8F883E08C401EE084AD
:10146000A0684B46B0F5805F4FF000024FF080015E
:101470002046009703D000F0E2F9E8B90DE000F053
:10148000DEF9C8B928882168C0F3080048602069DF
:1014900008B16D1C05E0AD1C03E0216815F8010BD7
:1014A0004860E08C0028D8D14B46002240212046DD
:1014B000009700F0C4F908B10320CCE7202084F89D
:1014C000390084F838800020C5E70220C3E7704760
:1014D000FEE700003EB500240D48009401940294FC
:1014E0000A498460016004730475012505614FF4A5
:1014F00060214460C161FEF761FFCDE900456946A6
:1015000003480294FEF7DCFE3EBD000000240140CB
:101510001C00002070B586B0002418480094019487
:1015200002940394816941F020018161816901F095
:1015300020010491816941F004018161816901F018
:1015400004010491816941F01001816180690C4EB0
:1015500000F010004FF42075049000222946304618
:10156000FFF775F901200095CDE9010402200390F1
:1015700069463046FFF774F806B070BD00100240AF
:1015800000100140FEE770477047704710B5FFF745
:1015900069F9BDE81040FFF7E9BD000070B59CB0E7
:1015A00038216846FEF738FE14210EA8FEF734FEF7
:1015B000202113A8FEF730FE012500242804CDE9E0
:1015C00002040226CDE908600095059501944FF4C8
:1015D000E010CDE90A046846FFF7B4FB0F20CDE91F
:1015E0000E06A802CDE9104002210EA81294FFF7C2
:1015F00095FAE8031590139613A8FFF7CBF9024864
:1016000005671CB070BD0000000042421048016830
:1016100041F00101016041680E4A114041600168DA
:101620000D4A11400160016821F480210160416888
:1016300021F4FE014160016821F0A05101604FF4E6
:101640007F0181600021C1620449C00308607047C6
:10165000001002400000FFF0FFFFF6FE08ED00E082
:1016600010B5406A0021C185C184FFF783FD10BD1C
:101670000168CA6822F49072CA6001684A6922F05F
:1016800001024A61202180F83A10704710B590F8A5
:101690003A10222901D0022010BD8168B1F5805F87
:1016A00011D00169002901681FD0496801F07F034A
:1016B000816A4A1C82620B70C18D491E0904090CA3
:1016C000C18518D02BE00269816A002A026852683D
:1016D00005D0D2B20A80816A491C8162ECE7C2F36C
:1016E00008020A80816A891CF7E74A68816A4B1CF4
:1016F00083620A70E0E70168CA6822F02002CA60CB
:101700000168CA6822F48072CA6001684A6922F0DE
:1017100001024A61202180F83A10FFF751FE0020B3
:1017200010BD00002DE9F041044600680169E2683F
:1017300021F44051114301612169A06808436169A6
:1017400008432168CA6841F20C639A430243CA60A5
:1017500020684169A26921F44071114341611E4929
:10176000206864253226884202D1FFF77DFA01E025
:10177000FFF76AFA00EBC00101EB001160686FF03F
:1017800018078000B1FBF0F2B2FBF5F2B1FBF0F309
:101790007A4303EB8202B1FBF0F306EB0212B2FBD9
:1017A000F5F2B3FBF5F302F0F00202EB0312B1FB2A
:1017B000F0F3B1FBF0F0B0FBF5F0784303EB800001
:1017C00006EB0010B0FBF5F0216800F00F001044AC
:1017D0008860BDE8F08100000038014090F83910C1
:1017E000212901D0022070478168B1F5805F016A2C
:1017F0000BD04A1C0262026809785160C18C491EF4
:101800000904090CC1840ED017E009880268C1F3ED
:101810000801516001690029016A02D0491C016276
:10182000ECE7891CFBE70168CA6822F08002CA6005
:101830000068C16841F04001C160002070472DE997
:10184000F041984617460E460446069D1DE0681C6A
:101850001BD02DB1FFF700F8A0EB0800A84214D967
:101860002068C16821F4D071C1602068416921F00D
:1018700001014161202084F8390084F83A000020F9
:1018800084F838000320BDE8F0812068006836EA5B
:10189000000004D00020B842D9D00020F3E7012096
:1018A000F9E700000148FFF767BC00004C0000208A
:1018B000FEE700000FB4054B10B503A9044A0298D7
:1018C00000F027F810BC5DF814FB0000E9190008CF
:1018D000080000200907090E002804DB00F1E020C1
:1018E00080F80014704700F00F0000F1E02080F84D
:1018F000141D704702E008C8121F08C1002AFAD15F
:1019000070477047002001E001C1121F002AFBD17F
:1019100070472DE9F84F99469246884605460027BC
:1019200006E025280AD051464A4690476D1C7F1C88
:1019300028780028F5D13846BDE8F88F002315F83F
:10194000011F18462E2915D115F8011F04232A2935
:101950000DD06FF02F022978A1F13004092C09D89D
:1019600000EB800002EB400008446D1CF3E758F8E0
:10197000040B6D1C2A78002ADDD0632A07D0732A55
:101980000FD0104651464A4690477F1C2AE018F86F
:10199000042B8DF8002000218DF801106E460121E6
:1019A00003E058F8046B4FF0FF315A074FF0000482
:1019B00001D409E0641C84420BDA8C42FADB325D0C
:1019C000002AF7D105E0641C8C42FCDB305D002866
:1019D000F9D1274404E016F8010B51464A469047D6
:1019E000641EF8D26D1CA3E713B540F6FF73012205
:1019F00069460248FFF70EFD00981CBD4C00002010
:101A0000FEF738FFFFF7CAFDFFF784FDFFF762FD21
:101A100015481449002501604FF41651C0E901151D
:101A20000C21C560C0E904518561C561FFF72CFC3C
:101A30000EA0FFF73FFF0C49012240310A48FFF793
:101A400095FC0F4C6078012801D1656065702078A5
:101A50000128F7D1044925704A310AA0FFF72AFF6F
:101A6000A570EFE7003801404C000020537461720C
:101A700074696E6720436F6465202E2E2E2000004F
:101A8000000000202573202D20526563656976656E
:101A9000640A0000000000000000000001020304CE
:101AA000060708090000000001020304CC1A000820
:101AB000000000201C000000F4180008E81A0008CC
:101AC0001C000020E40400000419000800000000CD
:101AD00000000000000000000100000010000000F5
:081AE000000000000024F400E6
:04000005080001519D
:00000001FF
