:020000040800F2
:10000000E019002065010008031F0008DF1D00083B
:10001000011F0008A5040008ED23000800000000EF
:10002000000000000000000000000000071F0008A2
:10003000A704000800000000051F0008991F000821
:100040007F0100087F0100087F0100087F01000890
:100050007F0100087F0100087F0100087F01000880
:100060007F0100087F0100087F0100087F01000870
:100070007F0100087F0100087F0100087F01000860
:100080007F0100087F0100087F0100087F01000850
:100090007F0100087F0100087F0100087F01000840
:1000A0007F0100087F0100087F0100087F01000830
:1000B000712000087F0100087F0100087F0100080F
:1000C0007F0100087F0100087F0100087F01000810
:1000D0007F010008612300086D2300087F010008EC
:1000E0007F0100087F0100087F0100080000000078
:1000F0000000000000000000000000000000000000
:1001000000000000000000007F0100087F010008DF
:1001100005210008112100087D2000087F0100084A
:100120007F0100087F0100087F0100087F010008AF
:100130007F0100087F0100087F0100087F0100089F
:100140007F0100087F0100087F0100087F0100088F
:10015000DFF80CD000F034F90048004741290008CE
:10016000E01900200648804706480047FEE7FEE702
:10017000FEE7FEE7FEE7FEE7FEE7FEE7FEE7FEE757
:100180001D200008510100082DE9F05F0546002000
:1001900092469B4688460646814640241BE02846F8
:1001A00041464746224600F020F853465A46C01AB8
:1001B000914110D311461846224600F0A3F82D1A9B
:1001C00067EB01084F4622460120002100F09AF813
:1001D00017EB00094E41201EA4F10104DFDC484664
:1001E00031462A464346BDE8F09F202A04DB203AE8
:1001F00021FA02F00021704721FA02F3D040C2F147
:10020000200291400843194670470000004870479B
:10021000D4360008D2B201E000F8012B491EFBD20F
:1002200070470022F6E710B513460A460446194601
:10023000FFF7F0FF204610BD30B505462A460B46B5
:1002400012F8010B13F8014B08B1A042F8D01CB111
:10025000002802D06D1CF1E7284630BD10B50446D9
:1002600004E00B7800F8013B03B1491C521EF8D2A0
:10027000204610BD421C10F8011B0029FBD1801A3A
:100280007047034611F8012B00F8012B002AF9D121
:10029000184670472DE9F04791460F4680460446C0
:1002A000002614F8015B2DB1FFF7B0FF0068405D38
:1002B000C007F6D12B2D02D02D2D18D0641E4A4632
:1002C0003946204600F02DF827B13968A14201D106
:1002D000C7F8008071054FF002040BD5404200289A
:1002E00003DD02F0B9F80460A007BDE8F08746F42A
:1002F0008066E4E70028F8DA02F0AEF804606FF0F8
:100300000040F2E7202A04DB203A00FA02F1002044
:1003100070479140C2F1200320FA03F31943904043
:1003200070472DE9F05F82460078002715468B461E
:100330000AF10104B946302801D09DB113E014F848
:10034000010B0127782803D0582801D045B10AE0D5
:100350000DB1102D07D10027102514F8010B02E074
:10036000082500E00A250026B0460EE005FB08003F
:1003700005FB06F1012701EB10461FFA80F8B6F5E0
:10038000803F00D3B94614F8010B294600F02AF843
:100390000028EBDABBF1000F05D00FB1641E00E0BE
:1003A0005446CBF80040B9F1000F06D002F054F8E3
:1003B00002210160C81EBDE8F09F48EA0640FAE746
:1003C000064C074D06E0E06840F0010394E80700A2
:1003D00098471034AC42F6D3FFF7BEFE9C390008B4
:1003E000BC3900083A2800D2303820F02002412AD7
:1003F00001D3A2F13700884201D34FF0FF3070479C
:1004000070B58C1810F8015B15F0070301D110F8D6
:10041000013B2A1106D110F8012B03E010F8016B03
:1004200001F8016B5B1EF9D12B0705D40023521E86
:100430000DD401F8013BFAE710F8013BCB1A921CEE
:1004400003E013F8015B01F8015B521EF9D5A142EC
:10045000D8D3002070BD000070B5044600688168E4
:10046000C943C9071CD1816821F00101816000F0F6
:10047000F9FA05460FE000BF00F0F4FA401B02282D
:1004800009D9A06A40F01000A062E06A40F00100C3
:10049000E062012070BD20688068C043C007EBD0D7
:1004A000002070BDFEE77047F8B50024009490F876
:1004B00024202546012A12D0012280F824204A68EF
:1004C0001F23072A0DD20668776B521E02EB8202A9
:1004D00093409F430B6893401F43776319E00220CA
:1004E000F8BD06680D2A0AD2376BD21F02EB8202D2
:1004F00093409F430B6893401F43376309E0F76ABB
:100500000D3A02EB820293409F430B6893401F43D6
:10051000F7620A68072306680A2A0AD3F7680A3AC4
:1005200002EB420293409F438B6893401F43F76066
:1005300008E0376902EB420293409F438B68934087
:100540001F4337610A68102A01D0112A20D1124BAB
:1005500002689A4217D193681B0219D4936843F436
:10056000000393600968102912D10C490C4A0968EC
:10057000B1FBF2F101EB8101490000E0491E00915D
:100580000029FBD104E0816A41F02001816201244D
:1005900080F824502046F8BD00240140D00C0020F3
:1005A00040420F002DE9F0414FF0000704003D46A6
:1005B0007ED0A06A002628B9E66284F8246020462E
:1005C00000F07EF82046FFF747FFA16A01F0100116
:1005D000014304D0A06A40F01000A06268E0A16A64
:1005E00021F4885141F00201A1626268E169237B34
:1005F0000A4347EA43010A43A1684FF48077B942AE
:1006000008D0012906D0002194F814C0BCF1010FD4
:1006100002D00AE03946F7E7F3B1A36A43F02003BA
:10062000A362E36A43F00103E3622368D3F804C0E2
:100630002CF4694C4CEA010CC3F804C02368996897
:10064000DFF870C001EA0C0111439960A168B9425A
:100650000BD0012909D00CE0DFF85CC0A3690CEBDA
:1006600043330B4343F40061DFE7218A0D05A5F511
:1006700080152168CB6A23F470032B43CB62216879
:1006800089680E4B1940914208D1E662A16A21F0B7
:10069000020141F00101A162BDE8F081A06A20F0F1
:1006A000020040F01000A062E06A40F00100E06249
:1006B0000120F1E7FDF7E1FF00E0FFFFFE0E1FFF65
:1006C00000B585B00021009101910291039100686D
:1006D0000E49884218D10E48816941F40071816148
:1006E000816901F400710491816941F00401816123
:1006F0008069694600F004000490402000900320C7
:100700000190044800F0B2F805B000BD002401409B
:1007100000100240000801402DE9F05F90F8211020
:100720000024022903D004218163012485E00168AB
:100730000A6822F00E020A6001680A6822F00102CB
:100740000A603F4E3E4FB215DFF8F4C0DFF8F0907C
:10075000DFF8ECA0DFF8E8B0DFF8E4E00168783F0C
:1007600013011502ACF1640CA9F15009AAF13C0A7D
:10077000ABF1280BAEF1140E4FF48018B14227D91B
:10078000B9420ED0614512D049451DD0514518D00F
:10079000594518D0714501D1424615E0294EB14264
:1007A00001D1012210E0274E1436B14201D11022AE
:1007B0000AE0244E2836B14206D0224A3C32914209
:1007C00001D11A4600E02A461E49091F0A602BE0A3
:1007D000B94213D0614517D0494522D051451DD0AB
:1007E00059451DD0714501D142461AE0B14202D1AE
:1007F0004FF0807215E0134EB14201D1012210E09A
:10080000104E1436B14201D110220AE00D4E2836A6
:10081000B14206D00B4A3C32914201D11A4600E067
:100820002A46074980394A60012180F821100021B9
:1008300080F82010416B01B188472046BDE8F09F49
:10084000800002400804024070B5044600F00AF936
:100850000546601C02D004480078044400F002F908
:10086000401BA042FAD370BDC40C00202DE9F84F04
:10087000DFF8B891002409F1040A0AF1040B2346B9
:100880000F270BF1040EC9E00125A5402A40AA421A
:100890007DD1674ED1F804C0ACEB0608B44532D028
:1008A00014DCBCF1030F3AD009DCBCF1000F2AD0F4
:1008B000BCF1010F1CD0BCF1020F31D11DE0BCF125
:1008C000110F17D0BCF1120F2AD119E0B8F5881F0B
:1008D00019D006DCB8F5803F15D0B8F5801F1FD1C0
:1008E00011E0B8F5001F0ED0B8F5041F18D10AE0CA
:1008F000CB6815E0CB681B1D12E0CB6808330FE016
:10090000CB680C330CE08B682BB1012B4FF0080344
:1009100003D0456104E0042302E0056100E0002308
:10092000FF2A01D8064601E000F104064FEA8405DB
:1009300001D9A5F12005D6F8008007FA05FC28EAC0
:100940000C0803FA05F548EA0508C6F800804D686A
:10095000ED0062D5374DAE6946F00106AE61AD6976
:1009600024F0030605F001050095334D06EB050C58
:10097000DCF80850A607360F07FA06F825EA08053E
:10098000DFF8B880404503D14FF0000817E044E09D
:10099000DFF8AC80404502D14FF001080FE0DFF8EE
:1009A000A480404502D14FF0020808E0DFF89880AB
:1009B000404502D14FF0030801E04FF0040808FA67
:1009C00006F848EA0508CCF808804D68D9F80060B8
:1009D000ED034D4601D5164300E096432E604D6869
:1009E000DAF80060AD03554601D5164300E09643A2
:1009F0002E604D68DBF80060ED025D4601D51643C0
:100A000000E096432E604D68DEF80060AD0275464A
:100A100001D5164300E096432E60641C0D682A46FB
:100A2000E5407FF431AFBDE8F88F000000040140DD
:100A300000001110001002400000014000080140B9
:100A4000000C01400010014000140140C2680A423D
:100A500001D041617047016170470AB1016170477F
:100A60000904FBE70148806870470000C40C0020BF
:100A700070B5040011D021684CF6CC4008602168A4
:100A800045F255500860D4E9000141602168A06832
:100A90008860FFF7E7FF054609E0012070BD00BF51
:100AA000FFF7E0FF401B302801D9032070BD20680C
:100AB000C0680028F4D121684AF6AA200860002006
:100AC00070BD00684AF6AA2101600020704700004E
:100AD000024881680278114481607047C40C00208C
:100AE000074810B5016841F010010160032000F0D3
:100AF00075F8002000F006F800F024F8002010BD82
:100B00000020024070B50D4D04464FF47A712878EC
:100B1000B1FBF0F00A490968B1FBF0F000F0FAFC13
:100B200048B9102C07D200222146501E00F036F89A
:100B300000206C6070BD012070BD0000C40C00205E
:100B4000D00C00200C4808B5816941F00101816199
:100B5000816901F001010091C16941F08051C161D9
:100B6000C06900F0805000900448416821F0E061C5
:100B700041F08061416008BD00100240000001406A
:100B8000002809DB00F01F0201219140400980008C
:100B900000F1E020C0F8001170470000F0B40E4BE7
:100BA0001B680C46C3F30223C3F10705042D00D9CB
:100BB0000425191D072901D2002300E0DB1E0126B0
:100BC00006FA05F1491E214099409E40761E1640C6
:100BD0003143F0BC01F030BC0CED00E0064900F000
:100BE000070208684FF6FF03184040EA0220034A54
:100BF00010430860704700000CED00E00000FA05AB
:100C00002DE9F843044600785B4DC0074FF0010919
:100C100051D0E8690026C00008D4E86940F080504F
:100C2000E861E869012600F08050009053480168AF
:100C3000C90512D40168804641F480710160FFF754
:100C400011FF074605E000BFFFF70CFFC01B64283B
:100C500077D8D8F80000C005F6D5286A10F440709F
:100C60001ED0A18801F44071814219D0286A4449FC
:100C700020F44070C1F8009000220A602862C0078A
:100C80000ED0FFF7EFFE074641F2883805E000BFBF
:100C9000FFF7E8FEC11B414553D8286A8007F7D506
:100CA000286A616820F44070084328621EB1E86930
:100CB00020F08050E8612078800705D56868A16839
:100CC00020F44040084368602078400705D5E86A72
:100CD000E16820F400300843E8622078000705D579
:100CE000E86A216920F480200843E862E86A80030A
:100CF00002D4E86A400333D52868C00028D42868A5
:100D0000400105D5E86AA16900F0F000884225D1CC
:100D1000E86AA16920F0F0000843E862E86A6169C6
:100D200020F470400843E8621649C1F87090FFF75C
:100D300099FE064608E004E0FFF794FE801B642855
:100D400002D90320BDE8F88328688000F4D507E0C5
:100D5000E86A616900F47040884201D00120F1E73F
:100D60002078C00605D56868E16920F48000084352
:100D700068600020E6E700000010024000700040BC
:100D800040044242000042422DE9F0470F46050070
:100D900061D0434E306800F00700B84209D2306895
:100DA00020F0070038433060306800F00700B84298
:100DB00051D128683B4C810712D5400703D56068A4
:100DC00040F4E06060602878000703D5606840F474
:100DD000605060606068A96820F0F00008436060BF
:100DE0002878C00728D06868012810D02168022818
:100DF00010D0890700292EDA616821F00301014330
:100E00006160FFF72FFE804641F288390DE02168CE
:100E10008903EFE78901EDE7FFF724FEA0EB080166
:100E2000494502D90320BDE8F0876068696800F091
:100E30000C00B0EB810FEFD1306800F00700B84232
:100E40000BD9306820F0070038433060306800F07C
:100E50000700B84201D00120E5E72878400705D512
:100E60006068E96820F4E060084360602878000763
:100E700006D56068296920F4605040EAC1006060CE
:100E800000F038F86168084AC1F30311515CC840AA
:100E90000649086006480068FFF734FE0020C2E7F4
:100EA000002002400010024038360008D00C00201C
:100EB000C80C00200448054900684968044AC1F389
:100EC0000221515CC8407047D00C00200010024045
:100ED000483600080448054900684968044AC1F3D7
:100EE000C221515CC8407047D00C00200010024065
:100EF00048360008F0B523A289B00FCA04AC84E8D4
:100F00000F0024A10FC98DE80F0026494A68264822
:100F100002F00C03042B2FD0082B2DD104A8C2F310
:100F20008343C45CD00329D5C86A00F00F001DF8C4
:100F30000020C86AC00316D5C86AC96AC0F3031086
:100F4000C1F30321401C891CA0FB0223A1FB041652
:100F5000154F0025A1FB070C06FB07C601FB056129
:100F6000FFF712F903E010486043B0FBF2F09DF880
:100F70001D10A14200D1400809B0F0BD0B486043EC
:100F8000FAE7000000000405060708090000000059
:100F9000000D00000102030405060708090A0B0CF6
:100FA0000D0E0F100010024000127A0000093D00E3
:100FB0002DE9F84F040070D02078F14DC00749D0DA
:100FC0006868C0F38100012807D06868C0F3810019
:100FD000022809D16868C00306D52868800339D57E
:100FE000A0680028E7D035E0A068B0F5803F0BD0BE
:100FF00010B1B0F5A02F11D0286820F480302860FF
:10100000286820F4802002E0286840F480302860BE
:10101000A06890B1FFF726FD06460AE0286840F474
:1010200080202860F0E700BFFFF71CFD801B6428CC
:1010300076D828688003F7D50CE0FFF713FD064645
:1010400005E000BFFFF70EFD801B6428F0D828687C
:101050008003F7D42078CB4E80074FF001094FF082
:1010600000073AD5686810F00C0F07D06868C0F325
:101070008100022809D16868C00306D42868800767
:1010800015D56069012808D111E06069B8B1C6F8CA
:101090000090FFF7E7FC804606E042E1FFF7E2FC44
:1010A000A0EB08000228C3D828688007F6D5286876
:1010B000A16920F0F80040EAC10028600DE0376027
:1010C000FFF7D0FC804605E0FFF7CCFCA0EB080062
:1010D0000228ADD828688007F6D4207800072ED5DE
:1010E000A948E169E9B1C0F80090FFF7BBFC804670
:1010F00006E000BFFFF7B6FCA0EB0800022897D877
:10110000686A8007F6D5A1484FF4FA510068B0FB31
:10111000F1F0009000BF0098411E0091FAD20EE05D
:10112000B0E00760FFF79EFC804605E0FFF79AFC01
:10113000A0EB0800022889D8686A8007F6D42078D6
:10114000400763D5E8694FF00008C00009D4E8699A
:1011500040F08050E861E8694FF0010800F08050ED
:1011600000908B480168C90512D40168834641F498
:1011700080710160FFF776FC824605E0FFF772FCA4
:10118000A0EB0A0064287DD8DBF80000C005F5D587
:10119000206901280AD008B1052813D0286A20F058
:1011A00001002862286A20F0040002E0286A40F06A
:1011B00001002862206941F2883B98B1FFF752FC98
:1011C00082460BE0286A40F004002862EEE700BF88
:1011D000FFF748FCA0EB0A01594553D8286A80075D
:1011E000F6D50CE0FFF73EFC824605E0FFF73AFC3F
:1011F000A0EB0A01594545D8286A8007F6D4B8F112
:10120000000F03D0E86920F08050E861E06AD0B3B5
:101210006968C90307D56968C1F38101022902D150
:10122000E96AC9037DD4022808D0E86A20F4803036
:10123000E862B766FFF716FC80463BE02868C0000E
:1012400005D5E86A616B00F0F000884269D1B766A5
:10125000FFF708FC804605E0FFF704FCA0EB080060
:10126000642874D828680001F6D4E86A616B20F01D
:10127000F0000843E862E86A216B20F470600843DC
:10128000E86201E063E018E0C6F86890FFF7EAFB67
:10129000804605E0FFF7E6FBA0EB0800642856D87F
:1012A00028680001F6D508E0FFF7DCFBA0EB08009A
:1012B00064284CD828680001F6D4206A90B3696885
:1012C000C1F38101022949D00228376603D0FFF714
:1012D000C9FB04463EE0FFF7C5FB074605E000BF3B
:1012E000FFF7C0FBC01B022831D828688001F7D463
:1012F000606AB0F5803F09D1E86A61680843E86236
:10130000E86AE16820F00F000843E862D4E90901C7
:101310000843696821F4741108436860C6F8609056
:1013200001E028E029E0FFF79DFB044605E000BF4F
:10133000FFF798FB001B022809D828688001F7D521
:101340001BE000BFFFF78EFB001B022802D9032021
:10135000BDE8F88F28688001F4D40EE00128F7D0AA
:101360006868626A00F48031914204D1A16A00F495
:101370007010884201D00120EAE70020E8E7000071
:10138000001002400000424280044242D00C002083
:101390000070004070B5040005D00025A56294F8E7
:1013A000510010B106E0012070BD84F85050204675
:1013B00000F02EF8022084F851002068016821F026
:1013C00040010160D4E901010843D4E9031211434B
:1013D000084361690843218B01F400710843E16906
:1013E0000843216A0843A16A084321680860A0698C
:1013F000042101EA1040216848602068C16921F495
:101400000061C1616565012084F85100002070BD54
:1014100030B585B0002400940194029403940068D0
:10142000174988422AD11748816941F48051816166
:10143000816901F480510491816941F00801816161
:101440008069114D00F008000490282000900220CF
:1014500001900320039069462846FFF707FA102001
:10146000CDE90004694628460294FFF7FFF90748D2
:10147000416841F0E06141F00101416005B030BDDB
:101480000030014000100240000C0140000001400B
:101490001F480122016AB1F57A7F02DA491C016214
:1014A00000E00271016921B1012900D10270491ED9
:1014B0000161416921B1012900D14270491E416198
:1014C000816921B1012900D1C270491E8161C169C0
:1014D00021B1012900D18270491EC161416A0029F0
:1014E00002DD416A491E4162C16A002903DDC16A09
:1014F000C16A491EC16206488030416A002901DD87
:10150000491E41628169002901DD491E81617047E0
:101510004009002010B5401EB0F1807F01D30120AA
:1015200010BD4FF0E02460610F21601700F084FFD0
:101530000020A06107202061002010BD10B5FFF73A
:10154000A7FF10BD7047704770B590F83C20012A86
:1015500019D0012400F83C4F0222427050F83C3C64
:101560005A689D6822F070060A684968324325F07F
:10157000800529435A6050F83C2C9160447000214A
:101580000170084670BD022070BD10B5040003D084
:1015900094F83D0010B107E0012010BD002084F850
:1015A0003C00204600F00CF8022084F83D00211D8C
:1015B000206800F069FD012084F83D00002010BD86
:1015C00008B501681448B1F1804F14D0134A914214
:1015D00020D1C16941F01001C161C069002200F051
:1015E0001000009011463620FFF7D8FA3620BDE8EB
:1015F0000840FFF7C5BAC16941F00101C161C06986
:10160000002200F00100009011461C20FFF7C6FAEE
:101610001C20ECE708BD0000001002400010004054
:101620000168CA6842F00102CA600068816801F07E
:101630000701062903D0016841F001010160002083
:101640007047704770B50446006801694FF00005A7
:10165000C943890715D4C168C943890711D4E91E54
:10166000016101202077206880698007204602D030
:10167000FFF7E7FF04E000F098F8204600F096F846
:10168000257720680169C943490717D4C168C94350
:10169000490713D46FF0040101610220207720680C
:1016A000806910F4407F204602D0FFF7CAFF04E0B3
:1016B00000F07BF8204600F079F825772068016972
:1016C000C943090716D4C168C943090712D46FF08A
:1016D00008010161042020772068C0698007204646
:1016E00002D0FFF7AEFF04E000F05FF8204600F004
:1016F0005DF8257720680169C943C90617D4C16818
:10170000C943C90613D46FF0100101610820207786
:101710002068C06910F4407F204602D0FFF791FF97
:1017200004E000F042F8204600F040F825772068F9
:101730000169C943C90708D1C168C943C90704D1B0
:10174000891E0161204600F033F820680169C94311
:10175000090609D4C168C943090605D46FF08001A0
:1017600001612046FFF7EEFE20680169C943490682
:1017700009D4C168C943490605D46FF0400101612D
:10178000204600F06FF820680169C94389060BD430
:10179000C168C943890607D46FF020010161204662
:1017A000BDE87040FFF7CFBE70BD704770470000C6
:1017B00070B500682649884206D1264C2649E06B60
:1017C000884202DA401CE06370BD224BA26B5433A6
:1017D0000021D3F8A852A3F1D40095421EDD206A5F
:1017E0000028F1D153F83250606B854212DD58B9B0
:1017F00003EBC200A3F1D40140688989012807D016
:101800000022E069FFF729F9606B401C606370BD3E
:101810000122F6E7521CC4E90D1270BDA163012537
:101820002562E163C2890D4B42B1012A09D0022A27
:10183000F3D1C18140218181E36170BDC5818021E7
:10184000F9E70221C181C90181810548E06170BDCC
:1018500000100040C0090020DB8D01000010014095
:10186000000801407047704770B502680446106870
:10187000D168536910F00F0F51D003F0010501F446
:10188000907635435DD0C20705D0CA0503D5E26B1B
:1018900042F00102E263420705D5DA0703D0E26BAA
:1018A00042F00202E263820705D5DA0703D0E26B59
:1018B00042F00402E263020705D5DA0703D0E26BC7
:1018C00042F00802E263E26B002A34D0800604D5BD
:1018D000880602D5204600F037FC20684069E16B9D
:1018E000C0F3801001F008010143204624D000F02D
:1018F0001DFC2068416949061AD5416921F0400163
:101900004161606BA0B11B494163606BFEF704FF4E
:10191000002810D0606B416BBDE87040084783061B
:101920000FD58B060DD52046BDE8704000F00CBCED
:101930002046FFF798FF70BDFFF795FF0020E0639A
:1019400070BD030606D50B0604D52046BDE87040E1
:1019500000F0A2BC4006F3D54806F1D5D168204678
:1019600021F04001D160202184F8391000F036FACE
:1019700070BD00001D21000870B5040004D094F86B
:101980003900002510B106E0012070BD84F8385000
:10199000204600F023F8242084F839002068C1682C
:1019A00021F40051C160204600F01AFC2068016952
:1019B00021F4904101612068416921F02A014161CF
:1019C0002068C16841F40051C160E563202084F8BB
:1019D000390084F83A00002070BD0000F0B585B0F1
:1019E000002400940194029403945C495A4DD0F869
:1019F00000C00E15022203235948AC4525D1CD69FC
:101A000045F40025CD61CD6905F4002504958D6967
:101A100045F010058D618969054601F01001CDE999
:101A20000331CDE900626946FEF720FF7000CDE981
:101A30000004694628460294FEF718FF002211466A
:101A40003420FFF7ABF834202FE0464D0427AC4597
:101A50002FD1CD6945F48015CD61CD6905F4801590
:101A600004958D6945F010058D618D6905F01005AF
:101A700004958D6945F020058D618969039301F016
:101A800020010491B902CDE900126946FEF7EEFE8D
:101A9000CDE90074694634480294FEF7E7FE00225F
:101AA00011463520FFF77AF83520FFF769F805B0C1
:101AB000F0BD2E482E4D844525D1886940F48040E4
:101AC0008861886900F480400490886940F00400CF
:101AD00088618869694600F0040004906815CDE9C2
:101AE000000203932846FEF7C1FECDE90064694673
:101AF00028460294FEF7BAFE002211462520FFF781
:101B00004DF82520D1E71B488445D0D1C86940F461
:101B10000030C861C86900F400300490886940F062
:101B2000040088618869694600F00400CDE903304B
:101B3000CDE900722846FEF799FE0820CDE90004A1
:101B4000694628460294FEF791FE0022114626209F
:101B5000FFF724F82620A8E7004C004000100240C0
:101B600000100140005000400014014000380140C6
:101B7000000801400044004090F83A30202B22D168
:101B8000F9B1F2B190F83830012B1CD08162828516
:101B9000C2850021C163222280F83A2080F83810E3
:101BA0000168CA6842F48072CA6001684A6942F0FA
:101BB00001024A610068C16841F02001C160002053
:101BC0007047012070470220704700002DE9F04760
:101BD000064601683C4800253C4C4FF023084FF076
:101BE000010981421DD13A4F07F114017D706079DE
:101BF0003A780A54401CC0B260710D541439012265
:101C0000A1F18000FFF7B8FFC4F8108038780A28E7
:101C100007D16079042803D984F80090256100E099
:101C200065712C49306888421DD12B4F07F1140192
:101C30007D70E0793A780A54401CC0B2E0710D54CE
:101C400014390122A1F52E70FFF796FFC4F8188011
:101C500038780A2807D1E079042803D984F803905A
:101C6000A56100E0E5711D4930683227884212D134
:101C70001748DC3000F1140145700278A0790A544D
:101C8000401CC0B2A0710D5414390122A1F5CE70D0
:101C9000FFF772FFE76112493068884212D10E489F
:101CA000DC3000F1140145700278207A0A54401C9F
:101CB000C0B220720D5414390122A1F53570FFF71E
:101CC0005BFF6761BDE8F0870038014040090020F4
:101CD000A00E0020004C0040581000200050004092
:101CE000004400402DE9F843044690F839001F46AF
:101CF00016460D46202850D1A5B19EB194F8380063
:101D000001284AD0012084F838004FF00008C4F8B8
:101D10003C80212084F83900FEF7A4FEA684814689
:101D2000E68426E00120BDE8F883E08C401EE084D4
:101D3000A0684B46B0F5805F4FF000024FF0800185
:101D40002046009703D000F0D8FAE8B90DE000F083
:101D5000D4FAC8B928882168C0F30800486020690F
:101D600008B16D1C05E0AD1C03E0216815F8010BFE
:101D70004860E08C0028D8D14B4600224021204604
:101D8000009700F0BAFA08B10320CCE7202084F8CD
:101D9000390084F838800020C5E70220C3E790F8B6
:101DA0003930202B18D1A9B1A2B190F83830012BCD
:101DB00012D001628284C2840021C163212280F892
:101DC000392080F838100068C16841F08001C16096
:101DD0000020704701207047022070477047FEE7DF
:101DE0003EB500240D480094019402940A49846091
:101DF000016004730475012505614FF4602144609E
:101E0000C161FEF7CFFB0620CDE9000569460294CB
:101E10000248FEF749FB3EBD00240140D80C0020DB
:101E20002DE9F04186B000242448009401940294E6
:101E30000394816941F020018161816901F02001F1
:101E40000491816941F004018161816901F004011B
:101E50000491816941F010018161816901F01001F3
:101E60000491816941F0080181618069144F00F09B
:101E700008004FF430750490002229463846FEF7DA
:101E8000ECFDDFF84080002240214046FEF7E5FDF2
:101E90000095022601250396CDE90154694638468E
:101EA000FEF7E4FC4020CDE90005CDE90246694695
:101EB0004046FEF7DBFC06B0BDE8F08100100240B2
:101EC00000100140000C01400C480B494FF4007217
:101ED00001604FF48271416000218160C160016145
:101EE000C0E905120822C0E90721416281620A2186
:101EF000C162FFF74FBA000000300140080D00201A
:101F0000FEE77047704770472DE9FE431E4E0546B9
:101F10000C46304600F0EAFC6420FEF795FC1122E6
:101F20002946304601F058FB6420FEF78DFC294617
:101F30002046FEF7A6F90025E5700A2202A92046F0
:101F4000FEF7A8F98046E5710A2202A9201DFEF7D6
:101F5000A1F90646E5720A2202A904F10800FEF77B
:101F600099F90746E5730A2202A904F10C00FEF76D
:101F700091F9CDE900703346424604A1204600F0B5
:101F800047FABDE8FE8300000020010825642E25E5
:101F9000642E25642E25640010B5FEF799FDBDE87A
:101FA0001040FFF7CBBA000070B59CB038216846EE
:101FB000FEF737F914210EA8FEF733F9202113A8F4
:101FC000FEF72FF909200090012500244FF48030FE
:101FD0000795CDE902040226CDE908600595019434
:101FE0004FF4E010CDE90A046846FEF7E1FF0F2048
:101FF000CDE90E06A802CDE9104002210EA81294E8
:10200000FEF7C2FEE8031590139613A8FEF7F8FD3D
:10201000014805671CB070BD0000424210480168CD
:1020200041F00101016041680E4A114041600168C0
:102030000D4A11400160016821F48021016041686E
:1020400021F4FE014160016821F0A05101604FF4CC
:102050007F0181600021C1620449C00308607047AC
:10206000001002400000FFF0FFFFF6FE08ED00E068
:102070000148FFF7E7BA0000A01500200148FFF76C
:10208000E1BA0000600D0020F0B50268194B1A4C4F
:102090001A4D1B4E4FF08047984207D0B84205D0EA
:1020A000A04203D0A84201D0B04204D122F0700C6B
:1020B0004A6842EA0C02984207D0B84205D0A042D2
:1020C00003D0A84201D0B04203D122F44074CA68C0
:1020D00022434C6922F08002224302608A68C26275
:1020E0000A688262984201D1096901630121416154
:1020F000F0BD0000002C014000040040000800403A
:10210000000C00400148FFF7AFBB0000A00D00200D
:102110000148FFF7A9BB0000E00D002010B5406AA0
:102120000021C185C184FFF79EFB10BD0168CA680C
:1021300022F49072CA6001684A6922F001024A6181
:10214000202180F83A10704710B590F83A102229F3
:1021500001D0022010BD8168B1F5805F11D0016906
:10216000002901681FD0496801F07F03816A4A1C79
:1021700082620B70C18D491E0904090CC18518D0FB
:102180002BE00269816A002A0268526805D0D2B247
:102190000A80816A491C8162ECE7C2F308020A8066
:1021A000816A891CF7E74A68816A4B1C83620A705E
:1021B000E0E70168CA6822F02002CA600168CA68C4
:1021C00022F48072CA6001684A6922F001024A6101
:1021D000202180F83A10FFF7F9FC002010BD000024
:1021E0002DE9F041044600680169E26821F440519C
:1021F000114301612169A0680843616908432168AE
:10220000CA6841F20C639A430243CA60206841697C
:10221000A26921F44071114341611E49206864257F
:102220003226884202D1FEF755FE01E0FEF742FE5B
:1022300000EBC00101EB001160686FF0180780002F
:10224000B1FBF0F2B2FBF5F2B1FBF0F37A4303EB32
:102250008202B1FBF0F306EB0212B2FBF5F2B3FB24
:10226000F5F302F0F00202EB0312B1FBF0F3B1FB65
:10227000F0F0B0FBF5F0784303EB800006EB0010C4
:10228000B0FBF5F0216800F00F0010448860BDE855
:10229000F08100000038014090F83910212901D068
:1022A000022070478168B1F5805F016A0BD04A1C3B
:1022B0000262026809785160C18C491E0904090C48
:1022C000C1840ED017E009880268C1F3080151608B
:1022D00001690029016A02D0491C0162ECE7891CEE
:1022E000FBE70168CA6822F08002CA600068C16822
:1022F00041F04001C160002070472DE9F04198464F
:1023000017460E460446069D1DE0681C1BD02DB1E5
:10231000FEF7A8FBA0EB0800A84214D92068C1680A
:1023200021F4D071C1602068416921F0010141614F
:10233000202084F8390084F83A00002084F838001E
:102340000320BDE8F0812068006836EA000004D070
:102350000020B842D9D00020F3E70120F9E70000BF
:102360000148FFF781BA0000200E00200148FFF766
:102370007BBA0000600E0020F0B585B00024184F35
:1023800000940194029422464FF40061384603946D
:10239000FEF763FB4FF4924001250226CDE90005CC
:1023A000CDE9024669463846FEF760FA0D48816974
:1023B00041F00801816180690B4F00F00800049032
:1023C0000022E0213846FEF748FBE020CDE9000579
:1023D000CDE9024669463846FEF748FA05B0F0BD39
:1023E0000008014000100240000C0140FEE7000020
:1023F0000FB4054B10B503A9044A029800F040F849
:1024000010BC5DF814FB000025290008C00C00205A
:102410000FB4084B10B504A902AA039800F030F8D5
:10242000044602A9002000F05CFA204610BC5DF8CA
:1024300014FB0000E32800080907090E002804DB4C
:1024400000F1E02080F80014704700F00F0000F168
:10245000E02080F8141D704700487047D40C00201D
:1024600002E008C8121F08C1002AFAD1704770475D
:10247000002001E001C1121F002AFBD170470000BB
:102480002DE9FF4F8DB00F460546002606E02528B2
:102490000BD0DDE90F1290476D1C761C28780028C0
:1024A000F5D111B03046BDE8F08F0024A246A14618
:1024B0000122EC4900E0044315F8013F203B02FAF9
:1024C00003F00842F7D128782A2810D06FF02F02A5
:1024D0002878A0F13001092914D80AEB8A0102EB0F
:1024E000410144F0020400EB010A6D1CF0E701CF4A
:1024F0005FEA000A03D544F40054CAF1000A44F02C
:1025000002046D1C28782E2817D115F8010F44F00D
:1025100004042A280ED06FF02F022878A0F1300191
:1025200009290AD809EB890102EB410100EB0109F5
:102530006D1CF2E757F8049B6D1C28786C280FD0AF
:1025400006DC4C2817D068280DD06A2814D104E086
:10255000742810D07A280FD10DE044F400140AE05A
:1025600044F4801401E044F440146978814202D1BB
:1025700004F580146D1C6D1C2A786E2A1FD00CDCAB
:10258000632A31D004DC002A8BD0582A11D1A3E071
:10259000642A68D0692A0CD165E0732A2ED004DC45
:1025A0006F2A73D0702A04D19BE0752A6FD0782AE5
:1025B0006ED01046DDE90F129047761C50E1C4F34F
:1025C0000250022806D0032809D0042801CF09D0E0
:1025D000066045E101CFF117C0E9006140E101CF9C
:1025E00006803DE106703BE117F8040B8DF8000012
:1025F00000208DF80100EB46012003E057F804BBF2
:102600004FF0FF3061074FF0000102D40DE008F1F8
:102610000101884649450FDA8045F8DB1BF80810B0
:102620000029F4D108E008F1010188468142FADB73
:102630001BF808100029F6D1DDE90F23AAEB0800EA
:102640008146214600F036F9304400EB080604E0EC
:10265000DDE90F121BF8010B9047B8F10108F7D222
:1026600021464846F7E00A21C4F302534FF0000B1D
:102670000891022B04D001CFC117032B09D00AE027
:10268000FF1D27F00707F7E8020108E032E01FE02E
:1026900020E000B2C117042B01D140B2C117031EC4
:1026A00071F1000307DA4FF0000CD0EB0C006CEB7B
:1026B00001012D2302E0230504D52B238DF82430BE
:1026C000012303E0E30701D02023F7E7984658E011
:1026D0000A2110E010210EE010204FF0000B0890AE
:1026E0000CE010214FF0000B44F004044FF00809F7
:1026F000089103E008214FF0000B0891C4F3025346
:10270000022B04D001CF0021032B06D006E0FF1DD1
:1027100027F00707F7E8020103E080B2042B00D19D
:10272000C0B24FF0000823072BD5702A07D0DDF880
:1027300020C08CF0100C5CEA0B0C05D00EE040239E
:102740008DF82430012308E050EA010306D030233D
:102750008DF824308DF8252002239846DDF820C01E
:102760008CF0080C5CEA0B0C0BD150EA010301D190
:10277000630706D530238DF824304FF00108A9F106
:102780000109582A04D038A20B9208AA0A920BE039
:102790003AA2F9E75B46089AFDF7F6FC0B9B9B5CB7
:1027A0000A9A521E0A92137050EA0102F2D10A9854
:1027B000ADEB000000F1200B600702D524F480345B
:1027C00001E04FF00109D94502DDA9EB0B0000E063
:1027D000002000EB0B0141440890AAEB010AE00342
:1027E00006D4DDE90F232146504600F063F8064485
:1027F0004FF0000908E009A911F80900DDE90F12FE
:10280000904709F10109761CC145F4DBE0030CD5C2
:10281000DDE90F232146504600F04CF8064404E061
:10282000DDE90F1230209047761C0899481E089069
:102830000029F5DC08E00A980A990078491C0A91F9
:10284000DDE90F129047761CBBF10001ABF1010BE3
:10285000F1DC21465046DDE90F2300F019F806446B
:102860006D1C1BE609280100303132333435363710
:1028700038396162636465660000000030313233CC
:10288000343536373839414243444546000000006C
:102890002DE9F041044600251E461746880404D45D
:1028A00005E039462020B0476D1C641EF9D5284646
:1028B000BDE8F0812DE9F041044600251E46904612
:1028C000C80301D5302700E02027880404D505E09F
:1028D00041463846B0476D1C641EF9D52846BDE810
:1028E000F0810A68531C0B60107070470B490A4A4C
:1028F0004A600B4A4A600A6922F001020A610A69C9
:1029000042F002020A614861086940F04000086133
:10291000C868C007FCD1704723016745002002400A
:10292000AB89EFCD13B5054840F6FF730122694628
:10293000006CFFF7D7F900981CBD0000C00900200B
:10294000BEB00427FEF7CCF8F648F5490160052132
:10295000416040F6AA218160FEF78AF8FFF724FB68
:10296000FFF75EFAFFF73CFAF04DEF484FF41658C8
:1029700028600024C5E901844FF00C0BEC60C5E928
:10298000044BAC615E462846EC61FEF7F5FFA5F10D
:102990008000E74901600146C1F804808460C4609A
:1029A000046146618461C461FEF7E6FFA5F1400061
:1029B000E0490160C0E90184C460C0E90446846163
:1029C000C461FEF7D9FF05F14000DB490160C0E9B1
:1029D0000184C460C0E904468461C461FEF7CCFF91
:1029E000A5F1C0000094D5490194C0E9001409156F
:1029F000C0E902418461FEF7C8FD00946946A5F173
:102A0000C0000194FEF7A0FDFFF75EFAFFF7B4FCEB
:102A1000CB4ECCA03564FFF7EBFC012205F1800121
:102A20002846FFF7A9F805F545710122A1F5357093
:102A3000FFF7A2F805F5AE710122A1F5CE70FFF700
:102A40009BF805F50E710122A1F52E70FFF794F8A1
:102A5000A6F1800144F6206AC1F82CA0A5F1C000BF
:102A6000FEF7DEFD01224021BC48FDF7F6FF40F6EF
:102A7000FF732246BAA1A5F18000FFF733F9DFF812
:102A8000EC822C2220A9404600F09AFDB8A03564C3
:102A9000FFF7AEFC032220A93AA8FDF7DFFB0A22CC
:102AA00039A93AA8FDF7F6FB0546BFA0FFF7A0FC41
:102AB000A5F10A00F62816D345464046FFF716FF53
:102AC0006420FDF7C1FE0F22C3A120A8FDF7C6FBBD
:102AD000C5A0FFF78DFC2C2220A9284600F07CFD24
:102AE0006420FDF7B1FEDFF84492CAA0C6F840901A
:102AF000FFF77EFC20A918A8FDF7C3FB8DF8634003
:102B00000A2239A918A8FDF7C5FB02908DF8674085
:102B10000A2239A919A8FDF7BDFB80468DF86B4044
:102B20000A2239A91AA8FDF7B5FB05468DF86F40B2
:102B30000A2239A91BA8FDF7ADFBCDE90050434699
:102B4000BFA118A8029AFFF763FC18A9BFA0C6F896
:102B50004090FFF74DFC18AAC0A1C848FFF758FCE9
:102B6000774D803D2879012808D12C6281032C7192
:102B7000C348FDF76BFF6B48FDF7A3FF706A50BBBE
:102B8000DFF8FC820122D1024046FDF766FF4FF4D8
:102B90007A70FDF759FE00224FF400614046FDF7C0
:102BA0005CFFDFF8E082002280214046FDF755FF00
:102BB000002240214046FDF750FF002220214046E0
:102BC000FDF74BFF42F21070FDF73EFEAE4870621B
:102BD000C5F82CA02C63012F04D0022F7CD0042F29
:102BE0007BD0BCE2E86A0028FBD1687A0128286B18
:102BF0000AD0002872D0A87A012870D0012068720B
:102C0000092028635046A1E20F28286B68DA401C8F
:102C10002863286BDFF8748200EBC00000EB4001F2
:102C200008EB81009AA1FDF707FB002875D1286BFE
:102C300000EBC00000EB400108EB8100FDF71AFB40
:102C400000286AD0286B00EBC00000EB400108EBC5
:102C500081008FA1406EFDF7EFFA00285ED007CE0D
:102C6000EB6F0DF1540C14938CE8070005F16C0028
:102C70000DF1400C0FC88CE80F0096E80700AB6E12
:102C80000DF1340C0C938CE8070005F14801686ED7
:102C90000EC9CDE90A30CDE9081205F138000DF171
:102CA000100C0FC88CE80F0005F15801686B0EC9B5
:102CB000CDE90012CDE9023076A27A497A480C3E7D
:102CC0006B6DFFF7A5FB7848FDF7D4FA76491A2219
:102CD000471C0A54CC5504E021E114E216E11AE144
:102CE00010E172A0C6F84090FFF782FB40F2DC5082
:102CF000FDF7AAFD6C49BAB240F6FF73A1F5C060BA
:102D0000FEF7F0FF40F2DC50FDF79EFD69A0C6F82B
:102D10004090FFF76DFB0227E5E0EAE0D6E0000017
:102D2000003000409415002000380140200E0020A3
:102D3000004C0040005000400044004000100040A3
:102D4000C00900205374617274696E6720436F6418
:102D500065202E2E2E200D0A0000000000100140DC
:102D600041542B43474D4D0D0A000000002001083F
:102D700047455454494E472049502046524F4D2014
:102D8000464C415348202D2D2D2D2D2D2D2D2D2DF3
:102D90002D2D2D2D2D2D2D2D2D2D2D2D2D2D2D2D63
:102DA0002D2D2D0D0A0D0A00495020434F4E56453A
:102DB0005254202D2D2D2D2D2D2D2D2D2D2D2D2D04
:102DC0002D2D2D2D2D2D2D2D2D2D2D2D2D2D2D2D33
:102DD0000D0A0D0A000000003033362E3235352E34
:102DE0003036382E323234007374726E637079204C
:102DF0002D2D2D2D2D2D2D2D2D2D2D2D2D2D2D2D03
:102E00002D2D2D2D2D2D2D2D2D2D2D2D2D0D0A0D55
:102E10000A00000047455454494E472049502D2D83
:102E20002D2D2D2D2D2D2D2D2D2D2D2D2D2D2D2DD2
:102E30002D2D2D2D2D2D2D2D2D2D2D0D0A0D0A0075
:102E400025642E25642E25642E25640053544F528C
:102E50004544204950203A202573000041542B431B
:102E6000495053544152543D22544350222C222560
:102E700073222C223830220D0A0000005406002054
:102E800000080140000C0140005307001C02002014
:102E90005E5A0000474554202F70696E6C6F672E94
:102EA0007068700038370008A01300202D2D3E3EBA
:102EB0002025730053454E44494E47204441544118
:102EC000202B204354524C2B5A0D0A00F9483064F1
:102ED000286B00EBC00000EB400108EB8101AFF272
:102EE0008800FFF785FAC820FDF7AEFCC820FDF783
:102EF000ABFC6C72286B00EBC00000EB400108EBF0
:102F000081001FE1092805DD092002E00120687227
:102F1000801E286323E1AC72012068721FE1686A99
:102F2000E8BBF06A58B9EC662C676C67AC67EC6775
:102F300034607460B460F460346174616C66DFF8AE
:102F40007883082208EB0011DA480831C030FEF718
:102F500026FFC820FDF778FCC6F84090F16A08EB20
:102F6000011090F80FC090F80E80437B027BCDE9F2
:102F7000048CCDE90223C37A827ACDE90023437A17
:102F8000027ACEA0FFF734FA4FF448706862A86A5C
:102F9000401CA862F06A0C2802DA401CF06205E0CE
:102FA000A86A0C2802DDAC620127F4626878012867
:102FB00074D1F06A002802DD401E306301E0C6F8DB
:102FC00030B06C70BC48316B00EB01100068012818
:102FD00016D002281AD004281ED0052822D0062890
:102FE00026D00A282AD00B282ED00C2832D0072829
:102FF00036D008283ED0092846D00D284FD057E0BB
:10300000BA48B0F8030040BAE86651E0B748B0F8F3
:10301000030040BA28674BE0B448B0F8030040BA58
:10302000686745E0B148B0F8030040BAA8673FE0E0
:10303000AE48B0F8030040BAE86739E0AB48B0F8F2
:10304000030040BAF06033E0A848B0F8030040BA8B
:1030500030612DE0A548B0F8030040BA706127E068
:10306000A248D0F80310807909BA21F0FF0101438A
:1030700031601DE09D48D0F80310807909BA21F035
:10308000FF010143716013E09848D0F80310807984
:1030900009BA21F0FF010143B16009E057E093480C
:1030A000D0F80310807909BA21F0FF010143696665
:1030B0006420FDF7C9FB06F10C01686E0EC9CDE96D
:1030C0000830CDE9061296E80700EB6F0DF10C0C05
:1030D00002938CE80700D5E91D01CDE90001834882
:1030E000D5E91B238249C830FFF792F97F4AC6F819
:1030F0004090C8327FA0316BFFF77AF93220FDF79C
:10310000A3FB2C722BE0E86A08BB286B05281FDAAA
:10311000286B401C286367483064286B00EBC000B4
:1031200000EB4001764800EB8101AFF2D420FFF7BD
:103130005FF96C72286B00EBC00000EB4001714836
:1031400000EB81004FF47A71806E4843E86206E03C
:103150006C72C5F82CA04FF0FF3028630227B069CD
:1031600060B93462AC65EC652C666C65AC63EC638D
:103170002C646C63AC64EC642C656C64E8780128A6
:1031800070D1EC70594960A0DC39C6F84090FFF767
:103190002FF9286B042F00EBC00000EB40010BD08F
:1031A000DFF8608108EB81005BA1406EFDF744F819
:1031B000F0B10120A87247E1514800EB810058A10D
:1031C000FDF73AF80028F6D04848DC38FDF752F809
:1031D0000A28F0D945485449DC38FDF72DF8C6F8DF
:1031E000409008B151A000E053A0FFF701F92BE196
:1031F0003E4859A1DC38FDF71FF880B9286B00EB79
:10320000C00000EB400108EB810057A1FDF714F866
:1032100068B1364857A1DC38FDF70EF838B1012007
:1032200068724FF4FA60E862092028630CE12F48C5
:1032300053A1DC38FDF700F8A8B16C72C5F82CA0DA
:103240002C63DFF848810122802140467462FDF73B
:1032500004FC002240214046FDF7FFFB0022202114
:103260004046EFE0F1E0286B00EBC00000EB4001CE
:1032700008EB81003CA1FCF7DFFFC8B11B4844A16B
:10328000DC38FCF7D9FF98B101206872286B03285D
:1032900008D1012280213D48FDF7DFFB6C72C5F8A3
:1032A0002CA02C636C72C5F82CA02C637462CBE04C
:1032B00072E00000A00D0020700800202564203A74
:1032C0003A202530325820253032582025303258C7
:1032D00020253032582025303258202530325820D1
:1032E0002530325820253032580D0A004811002070
:1032F000303900082564207C2025730D0A00000069
:10330000000000201C0200204D4F44454D203A3A59
:103310002025730D0A0000005F5F45474F00000045
:103320004347534E00000000040A0020494D454920
:10333000204F4B41590D0A00494D45492057524FE6
:103340004E470D0A50524F4752414D204C4F434B70
:1033500045440D0A00000000414C524541445920AB
:10336000434F4E4E454354004349505354415455E6
:103370005300000054435020434C4F53450000007D
:103380002B5044503A20444541435400000C014026
:103390004552524F52000000286B00EBC00000EB7A
:1033A000400108EB8100416E6A48FCF745FFD8B147
:1033B00001206872E96A4FF47A70814200DDE862A8
:1033C000286B072804DB012220216348FDF745FB19
:1033D000286B0A2804DB012240215F48FDF73DFBF2
:1033E000286B0E282BDA2FE05A495CA0C6F84090D3
:1033F000FEF7FEFF5DA15748FCF71EFFD0B15DA1AF
:103400005448FCF719FFA8B15AA15248FCF714FF21
:1034100084748046C11C58A0C6F84090FEF7E8FFAF
:1034200018A908F10300FEF76FFD6C72C5F82CA017
:103430002C63746254A14748FCF7FEFE20B10022C1
:1034400040214548FDF709FBEC71A878012858D1C7
:10345000AC70A8790D2835D947F23050B061E889B1
:1034600020B1012818D002285ED02BE03948DC3882
:10347000818949BAE965418949BA2966417AA965CC
:103480004178C07801F00F0100F00F0000EB8000E0
:1034900001EB4000686514E02E48DC38818949BAA8
:1034A000E963418949BA2964417AA9634178C078BE
:1034B00001F00F0100F00F0000EB800001EB400075
:1034C00068633462B06A401CB062002818DD05F100
:1034D0004400C6F84090B4620FC8CDE9070105F179
:1034E0003400CDE905230FC8CDE90301CDE901235F
:1034F000A86D0090D5E9171225486B6DFEF778FF8F
:10350000AC71287801287FF42DAB2C7021A12348C1
:10351000FCF792FE28B1082721A0C6F84090FEF7DC
:1035200067FF6C71FFF71EBB0A48DC38818949BA16
:10353000E964418949BA2965417AA9644178C0782A
:1035400001F00F0100F00F0000EB800001EB4000E4
:103550006864B6E76C100020000C014052455455D9
:10356000524E203A3A2025730D0A00002B434D5449
:103570003A0000006970000049502041444452451F
:103580005353203A20257300434C4F5345440000C9
:10359000C83800085041555345000000B40E0020C3
:1035A0002D2D2D2D2D2D2D2D2D2D2D5041555345AE
:1035B000442D2D2D2D2D2D2D2D2D2D2D00000000D8
:1035C000520805E030F8023B521E21F8023B92B24D
:1035D000002AF7D17047000070B55308134A144C05
:1035E000144D1EE054605560166926F002061661FF
:1035F000166946F0010616610E880680D668F60741
:10360000FCD1D668760702D54FF0FF3070BDD66882
:10361000F60602D56FF0010070BD5B1E801C9BB2E8
:10362000891C002BDED1002070BD0000002002406C
:1036300023016745AB89EFCD0000000000000000CA
:103640000102030406070809000000000102030448
:1036500000404040404040404040414141414140A5
:10366000404040404040404040404040404040405A
:1036700040050202020202020202020202020202E9
:1036800002202020202020202020200202020202EE
:103690000202909090909090101010101010101046
:1036A0001010101010101010101010100202020252
:1036B0000202888888888888080808080808080896
:1036C0000808080808080808080808080202020292
:1036D0004000000051360008000000003E000000DD
:1036E000434C4F534544000053454E44204F4B003C
:1036F000434F4E4E454354204F4B00004950204904
:103700004E495449414C00005F5F45474F0000005F
:10371000495020535441545553000000495020470C
:103720005052534143540000495020535441525485
:10373000000000005E5A000025733F7365726961E6
:103740006C3D303030303030303333323926696DB3
:1037500065693D38303030313330303030303030E2
:10376000303926636369643D55445530303030301C
:103770003030303039267369746569643D50544582
:10378000434830342664657669643D3078303030A3
:1037900030303030392663656C6C6E6F3D2B3838B5
:1037A000303030303030303030303926646363753B
:1037B0007272656E746F623D25642664636B776810
:1037C0006F75743D2564266463696E6F623D256480
:1037D0002664636F75746F623D2564266463637548
:1037E0007272656E746F62313D25642664636B7717
:1037F000686F7574313D2564266463696E6F62314C
:103800003D25642664636F75746F62313D256426BF
:10381000646363757272656E746F62323D256426EF
:1038200064636B77686F7574323D256426646369E1
:103830006E6F62323D25642664636F75746F623209
:103840003D25642661636B776873756E3D2564263C
:10385000696E706F7765723D256426616C61726D6B
:10386000313D256426616C61726D323D25642661AF
:103870006C61726D333D256426707631766F6C74A1
:103880003D256426707632766F6C743D2564266122
:10389000766F6C743D25642662766F6C743D25648A
:1038A0002663766F6C743D256426616375723D25D1
:1038B0006426626375723D256426636375723D25D7
:1038C000640D0A0D0A000000494E313A3A25642081
:1038D0004F5554313A3A25642043555252313A3AC1
:1038E0002564204B5768313A3A256420494E323AD4
:1038F0002564204F5554323A2564204355525232A4
:103900003A2564204B7768323A256420494E333A91
:103910002564204F5554333A256420435552523381
:103920003A2564204B7768333A25640D0A0000007D
:103930005056312D2564205056322D256420417675
:103940006F6C742D25642042766F6C742D25642075
:1039500043766F6C742D256420416375722D256448
:1039600020426375722D256420436375722D256492
:1039700020416C726D312D256420416C726D322DA9
:10398000256420416C726D332D2564204163746978
:103990007665706F7765722D25640000BC3900086C
:1039A00000000020D80C000000040008C03B000804
:1039B000D80C0020080D0000702400080560415458
:1039C0000D0A13F8363308050D5E415445316E89F2
:1039D0006C0F5A2B434D47463D71A96C280A4E4D3A
:1039E000493D312C322C3002095174A96C0C5947D5
:1039F000534ED6217AD86C095B67D9D80B5E453017
:103A00006E896C096AD8080B562B434950535441B0
:103A1000545553769AFC6C28135354543D226770C6
:103A2000696E7465726E6574222C220309487A09E6
:103A30006AD89B28376C0C5649435268096ED8AA3D
:103A40001CD80B5B4653D8AA086C095DD8EA106CE9
:103A5000181252543D22544350222C223130332E1E
:103A6000313130041D332E3534110E3938303930B0
:103A70002289BBF0366C0559454E440D5ADC6C0862
:103A80001839474554202F676174657761792F7025
:103A9000696E6C6F672E706870C60112133437330D
:103AA000081403625E5A1AE8D8296C01645AE06C63
:103AB0006A010414037D1035019DA3022904191025
:103AC000121235013C63032904191012403502DD3E
:103AD000B30429041910124535018DB305290419C1
:103AE00010124635017DB30629041910124735011D
:103AF0002C730729041910124835025C7108290437
:103B00001910124A3502FDB10929041910124C3559
:103B1000021DB00A29041910120835011DA40B2931
:103B2000041910120935014C640C29041910120AE9
:103B30003501BC640D290419101250C402DC760250
:103B400017402AB85101744B100193031D530710FD
:103B5000103836343736343033303131373239314A
:103B6000725E2A14E831721F5A0A10DA3E10DA68BF
:103B7000102908A9100A2553302928091240091EC6
:103B8000500916A01AD0F72910E9D0695069100A17
:103B90002D4870E9202948091210E97069200A159A
:103BA000685069300A1D3470091EA0091E4069A0C2
:103BB000290C290401B89A3EC882105324F400004D
:04000005080001519D
:00000001FF
